:020000040800F2
:100000006006002099010008A1010008A301000872
:10001000A5010008A7010008A901000800000000D0
:10002000000000000000000000000000AB0100081C
:10003000AD01000800000000AF010008B101000898
:10004000B3010008B3010008B3010008B3010008C0
:10005000B3010008B3010008B3010008B3010008B0
:10006000B3010008B3010008B3010008B3010008A0
:10007000B3010008B3010008B3010008B301000890
:10008000B3010008B3010008B3010008B301000880
:10009000B3010008B3010008B3010008B301000870
:1000A000B3010008B3010008B3010008B301000860
:1000B000B3010008B3010008B3010008B301000850
:1000C000B3010008B3010008B3010008B301000840
:1000D000B3010008B3010008B3010008B301000830
:1000E000B3010008B3010008B301000800F002F8F2
:1000F00000F042F814A696E8000CB244B344DA4586
:1001000001D100F039F8BAE80F000FA696E83000E8
:10011000A5EB040504EB0607AAEB0704A7F101070A
:100120004FEA15154FEA3414A4F10104AC4201D38F
:1001300000F022F813F0010F18BFFB1A43F001037F
:1001400000F001F8DBE71847300E0000400E000019
:10015000704700000023002400250026103A28BF25
:1001600078C1FBD8520728BF30C148BF0B60704729
:100170001FB51FBD10B510BD00F031F81146FFF7D7
:10018000F7FF00F0EBFB00F04FF803B4FFF7F2FFCE
:1001900003BC00F057F800000948804709480047B1
:1001A000FEE7FEE7FEE7FEE7FEE7FEE7FEE7FEE727
:1001B000FEE7FEE704480549054A064B7047000084
:1001C000F5080008ED00000860000020600600202F
:1001D000600200206002002070477047704775463B
:1001E00000F02CF8AE4605006946534620F00700A3
:1001F000854618B020B5FFF7DDFFBDE820404FF081
:1002000000064FF000074FF000084FF0000BAC461F
:10021000ACE8C009ACE8C009ACE8C009ACE8C0096A
:1002200021F007018D46704710B50446AFF30080FA
:100230002046BDE81040FFF7A8BF00000048704707
:100240000000002001491820ABBEFEE72600020096
:100250007047000088B00790069100200590049038
:1002600003900290019000900698C07800F00F0073
:1002700005900698C078C006002806D5FFE70698C6
:100280008178059808430590FFE7069800780028D4
:100290004BD0FFE707980068019000200390FFE72C
:1002A000039807283DD8FFE7039901208840029072
:1002B00006980088029908400490049802998842A0
:1002C0002AD1FFE703988000029002990F2088400E
:1002D000009000990198884301900598029900FACE
:1002E00001F10198084301900698C078282806D1AA
:1002F000FFE7039901208840079948610BE00698C1
:10030000C078482806D1FFE7039901208840079963
:100310000861FFE7FFE7FFE7FFE70398013003907D
:10032000BEE7019807990860FFE706980088B0F5D6
:10033000807F50DBFFE70798406801900020039022
:10034000FFE70398072842D8FFE7039800F1080168
:100350000120884002900698008802990840049085
:100360000498029988422DD1FFE7039880000290FB
:1003700002990F20884000900099019888430190CD
:100380000598029900FA01F1019808430190069836
:10039000C078282808D1FFE7039800F10801012060
:1003A000884007994861FFE70698C078482808D137
:1003B000FFE7039800F108010120884007990861D0
:1003C000FFE7FFE7FFE7039801300390B9E70198E3
:1003D00007994860FFE708B07047000082B00190BD
:1003E000ADF802108DF801209DF8010028B1FFE75B
:1003F000BDF802000199086104E0BDF8020001990E
:100400004861FFE702B0704780B582B000208DF8E8
:100410000700FFE79DF80700072820DCFFE79DF8AD
:1004200007000021009100F0DDF800988DF806002B
:10043000FFE79DF806007F280ADCFFE7002000F0B8
:1004400093F9FFE79DF8060001308DF80600F0E70C
:10045000FFE79DF8070001308DF80700DAE702B0EA
:1004600080BD000080B584B008200121029100F019
:100470008FF914208DF80F0003208DF80E00C02096
:10048000ADF80C0040F60040C4F20100019003A951
:10049000FFF7E0FE0198029A4021FFF79FFF0198C5
:1004A000029A8021FFF79AFF04B080BD80B586B024
:1004B0008DF8170000208DF81600FFE79DF8160054
:1004C000072821DCFFE79DF817009DF81620802102
:1004D00021FA02F2024040F60040C4F2010003900B
:1004E000FFF77CFF0398402104910122FFF776FF7C
:1004F000039804990022FFF771FFFFE79DF81600AB
:1005000001308DF81600D9E740F60040C4F2010032
:100510000190402102910122FFF760FF01980299AA
:100520000022FFF75BFF06B080BD000080B586B0FB
:1005300040F60040C4F201000390802102910122A4
:100540000192FFF74BFF019A039840210491FFF7B6
:1005500045FF0299039800220592FFF73FFF039899
:100560000499059AFFF73AFF06B080BD80B584B0C4
:1005700040F60040C4F20100019080210291002267
:10058000FFF72CFF0198402101220392FFF726FF7D
:1005900001980299039AFFF721FF04B080BD000083
:1005A00080B582B0FFF75EFF00200190FFE7019861
:1005B00044F61F61884205DCFFE7FFE70198013040
:1005C0000190F4E7AE2000F0BBF88D2000F0B8F801
:1005D000142000F0B5F8AF2000F0B2F8FFF714FFD8
:1005E00002B080BD80B582B08DF807008DF806108E
:1005F0009DF8070040F0B00000F0A2F89DF806005A
:100600000009103000F09CF89DF8060000F00F0083
:1006100000F096F802B080BD80B582B08DF807007A
:100620008DF806108DF805209DF807106FF0010079
:1006300000EB41009DF806206FF0070101EBC201BD
:10064000C0B2C9B2FFF7CEFF00208DF80400FFE76B
:100650009DF80400072819DCFFE79DF8051040F617
:100660008010C0F6000000EB01109DF80410084453
:100670004FF60061CFF6FF71405C00F075F8FFE7C0
:100680009DF8040001308DF80400E1E79DF80710A3
:100690004FF0FF3000EB41009DF806206FF007019E
:1006A00001EBC201C0B2C9B2FFF79CFF00208DF878
:1006B0000400FFE79DF80400072819DCFFE79DF818
:1006C000051040F68010C0F6000000EB01109DF808
:1006D000041008444FF60861CFF6FF71405C00F04B
:1006E00043F8FFE79DF8040001308DF80400E1E7CE
:1006F00002B080BD80B584B08DF80F008DF80E106B
:10070000029200208DF80700FFE702989DF807107D
:10071000405C98B1FFE79DF80F009DF80E109DF822
:1007200007301944029AD25CC9B2FFF775FFFFE7A0
:100730009DF8070001308DF80700E6E704B080BDA2
:1007400080B582B08DF80700FFF7F0FE7820FFF744
:10075000ADFE0020FFF7AAFE9DF80700FFF7A6FEFA
:10076000FFF704FF02B080BD80B582B08DF80700AE
:10077000FFF7DCFE7820FFF799FE4020FFF796FE9A
:100780009DF80700FFF792FEFFF7F0FE02B080BD74
:1007900082B001908DF803109DF8030048B1FFE787
:1007A000019A41F21801C4F202010868104308607E
:1007B00008E0019A41F21801C4F20201086890436E
:1007C0000860FFE702B0704780B500F001F880BD17
:1007D00084B000200390029041F20001C4F20201B3
:1007E000086840F480300860FFE741F20000C4F27E
:1007F0000200006800F4003002900398013003907A
:10080000FFE702990020019039B9FFE70398B0F59E
:10081000A06018BF01200190FFE70198C0070028E1
:10082000E3D1FFE741F20000C4F202000068800358
:10083000002803D5FFE70120029002E0002002908B
:10084000FFE70298012851D1FFE742F20001C4F20C
:100850000201086840F010000860086820F00700F6
:100860000860086840F00200086041F20401C4F228
:10087000020100910868086008680860086840F490
:1008800080600860086820F47C100860086840F404
:10089000E810086041F20001C4F20201086840F06B
:1008A00080700860FFE741F20000C4F202000068B7
:1008B0008001002801D4FFE7F5E741F20401C4F20A
:1008C0000201086820F003000860086840F0020098
:1008D0000860FFE741F20400C4F20200006800F083
:1008E0000C00082801D0FFE7F4E700E0FFE704B0C0
:1008F0007047000080B541F20002C4F202021068A5
:1009000040F00100106041F20401C4F202010868E5
:100910000023CFF6FF031840086010684FF6FF73FE
:10092000CFF6F66318401060106820F48020106045
:10093000086820F4FE00086041F20801C4F20201D8
:100940004FF41F000860FFF73FFF4EF60851CEF24C
:1009500000014FF00060086080BD000080B582B0EB
:1009600000200190FFF71CFEFFF74EFD40F670726D
:10097000C0F6000201210846FFF7BCFEFFE7FEE7D4
:100980000000000000000000000000000000000067
:10099000000000F8000000000000003330000000FC
:1009A00000100C06100C0600000000000000000003
:1009B00040C07840C0784000043F04043F04040075
:1009C000007088FC08300000001820FF211E000085
:1009D000F008F000E018000000211C031E211E009A
:1009E00000F00888700000001E2123241927211020
:1009F00010160E00000000000000000000000000C3
:100A0000000000E018040200000000071820400069
:100A100000020418E0000000004020180700000059
:100A2000404080F0804040000202010F01020200BD
:100A3000000000F0000000000101011F01010100A1
:100A4000000000000000000080B070000000000006
:100A5000000000000000000000010101010101018F
:100A60000000000000000000003030000000000026
:100A700000000000806018040060180601000000FB
:100A800000E010080810E000000F102020100F00F8
:100A9000001010F8000000000020203F202000007F
:100AA00000700808088870000030282422213000D7
:100AB00000300888884830000018202020110E00DF
:100AC0000000C02010F8000000070424243F240088
:100AD00000F80888880808000019212020110E005D
:100AE00000E0108888180000000F112020110E006F
:100AF00000380808C83808000000003F0000000067
:100B00000070880808887000001C222121221C0027
:100B100000E010080810E0000000312222110F0050
:100B2000000000C0C00000000000003030000000E5
:100B30000000008000000000000080600000000055
:100B4000000080402010080000010204081020006E
:100B500040404040404040000404040404040400B9
:100B6000000810204080000000201008040201004E
:100B7000007048080808F00000000030360100004E
:100B8000C030C828E810E0000718272423140B0001
:100B90000000C038E0000000203C2302022738207B
:100BA00008F8888888700000203F202020110E005F
:100BB000C030080808083800071820202010080056
:100BC00008F808080810E000203F202020100F003F
:100BD00008F88888E8081000203F2020232018000B
:100BE00008F88888E8081000203F20000300000073
:100BF000C03008080838000007182020221E020014
:100C000008F808000008F808203F210101213F20D2
:100C1000000808F8080800000020203F20200000FD
:100C200000000808F8080800C08080807F000000ED
:100C300008F888C028180800203F20012638200026
:100C400008F8080000000000203F2020202030008D
:100C500008F8F800F8F80800203F003F003F2000A7
:100C600008F830C00008F808203F200007183F00AF
:100C7000E01008080810E0000F10202020100F00DE
:100C800008F808080808F000203F210101010000D1
:100C9000E01008080810E0000F18242438504F0016
:100CA00008F8888888887000203F2000030C3020D6
:100CB00000708808080838000038202121221C0014
:100CC000180808F8080818000000203F200000005D
:100CD00008F808000008F808001F202020201F0046
:100CE0000878880000C83808000007380E010000A6
:100CF000F80800F80008F800033C0700073C030070
:100D0000081868808068180820302C03032C3020D5
:100D10000838C800C83808000000203F2000000044
:100D200010080808C838080020382621202018009C
:100D3000000000FE020202000000007F4040400070
:100D4000000C30C000000000000000010638C000A8
:100D500000020202FE000000004040407F00000050
:100D60000000040202020400000000000000000075
:100D70000000000000000000808080808080808073
:100D8000000202040000000000000000000000005B
:100D900000008080808000000019242222223F2051
:100DA00008F8008080000000003F112020110E0094
:100DB0000000008080800000000E11202020110023
:100DC000000000808088F800000E112020103F20D5
:100DD0000000808080800000001F22222222130059
:100DE000008080F0888888180020203F20200000A4
:100DF0000000808080808000006B94949493600059
:100E000008F8008080800000203F210000203F2063
:100E100000809898000000000020203F2020000063
:100E2000000000809898000000C08080807F000053
:100E300008F8000080808000203F24022D30200030
:100E4000000808F8000000000020203F20200000DB
:100E50008080808080808000203F20003F20003FF5
:100E60008080008080800000203F210000203F2003
:100E70000000808080800000001F202020201F00B4
:100E8000808000808000000080FFA12020110E00E3
:100E90000000008080808000000E112020A0FF80D4
:100EA000808080008080800020203F212000010081
:100EB00000008080808080000033242424241900D6
:100EC000008080E0808000000000001F20200000E3
:100ED0008080000000808000001F202020103F2024
:100EE000808080000080808000010E3008060100B4
:100EF00080800080008080800F300C030C300F0059
:100F000000808000808080000020312E0E31200083
:100F1000808080000080808080818E7018060100B3
:100F200000808080808080000021302C22213000D1
:100F300000000000807C020200000000003F4040F2
:100F400000000000FF00000000000000FF000000A3
:100F50000002027C800000000040403F00000000D2
:100F6000000601010202040400000000000000006D
:100F700068656C6C6F000000880F0008000000209E
:080F80006006000054010008A6
:040000050800019955
:00000001FF
