:020000040800F2
:1000000060060020450200084D0200084F0200086B
:1000100051020008530200085502000800000000C9
:10002000000000000000000000000000570200086F
:1000300059020008000000005B0200085D02000891
:100040005F0200085F0200085F0200085F0200080C
:100050005F0200085F0200085F0200085F020008FC
:100060005F0200085F0200085F0200085F020008EC
:100070005F0200085F0200085F0200085F020008DC
:100080005F0200085F0200085F0200085F020008CC
:100090005F0200085F0200085F0200085F020008BC
:1000A0005F0200085F0200085F0200085F020008AC
:1000B0005F0200085F0200085F0200085F0200089C
:1000C0005F0200085F0200085F0200085F0200088C
:1000D0005F0200085F0200085F0200085F0200087C
:1000E0005F0200085F0200085F02000800F002F8EB
:1000F00000F098F814A696E8000CB244B344DA4530
:1001000001D100F08FF8BAE80F000FA696E8300092
:10011000A5EB040504EB0607AAEB0704A7F101070A
:100120004FEA15154FEA3414A4F10104AC4201D38F
:1001300000F078F813F0010F18BFFB1A43F0010329
:1001400000F001F8DBE718472031000030310000F3
:10015000704700000023002400250026103A28BF25
:1001600078C1FBD8520728BF30C148BF0B60704729
:100170006E2900F03F81702900F08182662902F02B
:10018000BF84652902F0BC84672902F0B984612923
:1001900002F0B88403681B0A28BF41F08001692976
:1001A00000F0EC80642900F0E980752900F0E68019
:1001B0006F2900F00F82782900F04D82E92900F0C4
:1001C000A981E42900F0A681F52900F0A381EF2997
:1001D00000F00C82F82900F04C820368DB0928BF8C
:1001E00041F08001632900F04D87732900F05287A8
:1001F000E32900F05D87F32900F062870020704753
:100200001FB500F0B3FF04000020002102F062FCE3
:10021000401C60600020002102F046FCE0601FBD31
:1002200010B510BD00F074FF1146FFF7E9FF01F0B3
:10023000B1FF01F051F803B4FFF7F2FF03BC01F086
:1002400099F800000948804709480047FEE7FEE7A3
:10025000FEE7FEE7FEE7FEE7FEE7FEE7FEE7FEE776
:1002600004480549054A064B704700002D21000847
:10027000ED00000860000020600600206002002001
:10028000600200200FB41CB5084B06AA7B446946E7
:100290000090059800F0C7F804460020694600F079
:1002A000D5F820461CBC5DF814FB0000BD01000021
:1002B00070477047704770B5044685690068C1068D
:1002C00001D5302600E02026C00707D070BDD4E954
:1002D000012130469047206A401C20626D1EF6D5F1
:1002E00070BD70B5044685690078C00707D170BD40
:1002F000D4E9012120209047206A401C20626D1E15
:10030000F6D570BD09684A0501D540B27047C905E8
:10031000FCD500B2704709684A0501D5C0B27047E4
:10032000C905FCD580B2704770B50C460546012A58
:1003300005D02878800600D5EA69002302E0012371
:1003400005E05B1C934202D2E05C0028F9D1A86969
:10035000E618C01AA861286A184428622846FFF7E0
:10036000AAFF04E0D5E9012114F8010B9047B4423B
:10037000F8D32846FFF7B5FF70BD00002DE9F04126
:100380000646002410687529314616A510D0FFF7DF
:10039000B9FF002802DA404213A507E031688A0756
:1003A00001D512A502E0490704D511A5012401E0F9
:1003B000FFF7B1FF00210A2206F1240709E0B0FB94
:1003C000F2FCB0FBF2F302FB1C003030785418460C
:1003D000491C0028F3D123462A463046BDE8F041A7
:1003E00000F061BA000000002D0000002B000000AA
:1003F0002000000011680268006A530501D50870EA
:100400000AE0D30501D5088006E0130603D5C2171C
:10041000C1E9000200E008600120704701694A1C40
:1004200002610878704700B58FB0CDE90131002135
:10043000059105497944CDE903101146684600F05D
:1004400029F90FB000BD0000E5FFFFFF0A6802F8C0
:10045000010B0A60704700002DE9FF5F15468A46D0
:100460000446DFF8AC80F8440027D8E900103E4687
:10047000CDE9001010E03AF816106A4602A800F024
:1004800023FE411C07D02178890603D5E26939187B
:1004900091420DD80744761C2078800602D5E06989
:1004A000B84205DDAE42E6DB3AF816000028E2D19C
:1004B000A069C01BA0612046FFF7FDFED8E900102F
:1004C000CDE90010002017E03AF818106A4602A89B
:1004D00000F0FAFDB0F1FF3F81460BD000250DF191
:1004E000080B05E0D4E901211BF8050090476D1CBD
:1004F0004D45F7D308F10100B0428046E4DB206AA5
:10050000384420622046FFF7ECFEBDE8FF9F000064
:100510009E2600002DE9F0418046D21D22F0070200
:100520000025D2E90002F52915A614D0011E72F1AA
:10053000000106DA0023D0EB030063EB020211A6F0
:1005400008E0D8F800108B0701D50FA602E0490794
:1005500001D50EA601251146002408F1240704E068
:1005600000F05CF930323A55641C50EA0102F7D1D0
:100570002B46324621464046BDE8F04100F093B993
:10058000000000002D0000002B00000020000000F3
:1005900030B4002100F1240408E002F00705D2087D
:1005A000303542EA4372DB086554491C52EA0305C0
:1005B000F3D10468002310A2250708D504F0200415
:1005C0000C4304D0C46901230CA2641EC46130BC76
:1005D00000F069B910B5044621461068FFF79BFE8C
:1005E00002462046BDE810400023D1E7D21D22F08C
:1005F0000701D1E90023CBE7000000003000000034
:10060000F0B40D460188090502D5214C7C4402E076
:100610001F4C7C440E34002100F1240608E002F057
:100620000F071209E75D42EA03721B097754491C60
:1006300052EA0307F3D102780023120704D5702D84
:1006400006D009B1022311342246F0BC00F02BB9C8
:1006500001231034F8E770B504460D4621461068B2
:10066000FFF759FE024629462046BDE870400023A8
:10067000C6E7D21D22F00703D3E90023C0E70368D1
:10068000126843F0200303600823C3610023B7E727
:10069000002500002DE9F05F894604464FF0000A6E
:1006A000DFF874B1FB44C0F820A02046E168884719
:1006B000002874D0252806D0D4E901219047206A6B
:1006C000401C2062F1E700265F462046E16888472B
:1006D0002028054607DB312D05D2781910F8200CAB
:1006E00008B10643F1E7B00701D526F00406C4F8C7
:1006F0001CA00027C4F818A02A2D09D0284602F013
:10070000CBF938B304EB8708303DC8F8185019E02E
:1007100059F8041B204604EB87029161E168884781
:10072000012F054618D1E069002820DA26F02006BE
:100730001DE0D8F8180000EB800005EB40003038D1
:10074000C8F818002046E1688847054602F0A4F979
:100750000028EED1012F0AD02E2D08D12046E168C5
:1007600088477F1C0546022F46F02006C4DBA0699F
:10077000002803DA404246F00106A061F00701D0EC
:1007800026F010066C2D0BD0682D09D04C2D39D0D9
:100790006A2D35D0742D35D07A2D33D016E038E05F
:1007A000E1682F4620468847B842054609D16C2F9C
:1007B00026D04FF48060E16806432046884705460E
:1007C00004E06C2F1AD04FF4807006430DB3A5F1EE
:1007D0004100192802D8203546F400664A462946C9
:1007E000204626604E46FFF7C3FC80B101280BD09F
:1007F000F61D26F0070000F1080956E74020E4E75F
:100800008020D8E70020D6E706F104094DE7284606
:1008100052E7206ABDE8F09F9024000030B5B0F1A7
:100820000A0271F100034FEA900E4EEA817EB0EBAE
:100830000E0061EB91014FEA101E4EEA017E10EBB3
:100840000E0041EB11114FEA102E4EEA016E10EB33
:100850000E0041EB11214FEA104E4EEA014E10EB13
:100860000E0041EB1141401841F100014FEAD00068
:1008700040EA41704FEAD1014FEA810444EA9074A2
:1008800010EB800544EB01046D1944EB0404521B8A
:10089000A3414FF0000348BF0A3200D530BD401CD1
:1008A00041F1000130BD2DE9F0470D4699469246D1
:1008B000044600F124080168880604D5E06921F0A7
:1008C0001001216000E00120A84201DD471B00E08B
:1008D0000027A1697A1902EB0900081AA0612078A3
:1008E000C00602D42046FFF7E6FC002608E0D4E963
:1008F00001211AF806009047206A401C761C2062ED
:100900004E45F4DB2078C0060AD52046FFF7D3FC1D
:1009100006E0D4E9012130209047206A401C206283
:10092000381EA7F10107F4DC07E0D4E9012118F82B
:1009300005009047206A401C2062281EA5F1010591
:10094000F3DC2046FFF7CDFC2078000602D502201C
:10095000BDE8F0870120FBE72DE9FF4F0C461E465E
:100960004FF0FF378BB0D2E90001DDF860800A90CC
:100970008A46C1F30A5505B93D46002108464FF0A5
:100980000000BAF1000F00F4400005DA00EB80002F
:100990004FF4400101EA50004FEA9059B9F1010FBC
:1009A00000DDB9460A9850EA4A000ED044F61050CD
:1009B000A5F2FF3545432F14B8F1000F1ED0754244
:1009C000291E1EDDC9F100021CE0B8F1010F4FF035
:1009D000000001D0302103E0F24305E02154401C27
:1009E000B042FBDB30460022002121540B99C1F8B4
:1009F0000880C1E900200FB0BDE8F08FBD1B6D1C61
:100A0000DEE74A4600DA694206A800F0F3FB06ABCF
:100A100093E8070003AB83E8070050460A9901F00A
:100A20005FFC8DE80700A0F500501F380090039888
:100A3000002D0ADD42F21F014A460844002303A9A3
:100A40000390684601F0C8FE09E0A0F500504A4650
:100A50001F38002303A90390684601F0D2FE8DE8F9
:100A600007000004000C03D04FF0FF30410800E005
:100A70001046B8F1000F03D00022009215461EE088
:100A8000751E05D4FFF7CAFE303262556D1EF9D5CA
:100A9000B3460122084302D000227F1C04E02078E4
:100AA000302801D100227F1E002A099784D01DE042
:100AB000112D07DAFFF7B2FE303262556D1C50EA95
:100AC0000102F5D1084302D00098C8B10EE0002120
:100AD000681E05E0235C625C63542254401E491C7E
:100AE0008142F7DBAB46A81B401E0990002004F8AA
:100AF0000B000B98099AC0F80880C0E9002B7AE730
:100B000011264FF0000857E72DE9F04F88460446BC
:100B1000D21D22F0070191B0D1E90001CDE90A010F
:100B200001F0A6FF02460B98C00F01D02D2007E070
:100B30002068810701D52B2002E0202101EAC000B6
:100B4000032A099001D0072A05DB034641462046C7
:100B500000F010FB0BE12078800601D5E06900E091
:100B60000620B8F1650F814606D0B8F1660F18D09F
:100B7000B8F1670F70D131E00020B9F1110F00908A
:100B800001DB112301E009F101030AAA01A90CA864
:100B9000FFF7E2FEDDE90C70002609F1010583464E
:100BA00047E001204B4600904FF000470AAA01A9F8
:100BB0000CA8FFF7D1FEDDE90DB00C995D460026CB
:100BC00010B909F101000D18B9EB050003D4C0F10B
:100BD000FF3609F10105A5EB09002BE0B9F1010F82
:100BE00001DA4FF001090020B9F1110F00904846D9
:100BF00001DD112300E003460AAA01A90CA8FFF7B2
:100C0000ABFEDDE90C704D460026834620780007D8
:100C10000AD4AB4500DA5D4601A8012D04DD411977
:100C200011F8011C302907D04F4502DA17F1040FE3
:100C300004DA012082460FE06D1EEEE7002F02DC91
:100C4000ED1B3E4403E0781CA84200DD7D1CB81B70
:100C500000F1010A4FF000472078000703D4AA45AD
:100C600001DB4FF0FF3A0021B7F1004F0DF14308CF
:100C70008DF8431024D002202B23002F01DA7F426D
:100C80002D230A21021EA0F1010000DC5FB197FBB9
:100C9000F1FC97FBF1F201FB1C7C17460CF1300CC8
:100CA00008F801CDEEE7A8F10100037021880905DD
:100CB00001D5452100E06521A0F1010800F8011CE3
:100CC00009980FA9A1EB0807FF1D00B101204119E8
:100CD00001EBEA70A1693844081A401EA06120782F
:100CE000C00602D42046FFF7E6FA099828B1D4E9F5
:100CF00001219047206A401C20622078C00622D53E
:100D00002046FFF7D8FA1EE0002E04DBB34502DDD3
:100D100001A8805D00E03020D4E901219047206ADD
:100D2000401C2062761CAAF101005FEA000A0AD189
:100D300000F01CFAC0680168405CD4E901219047CA
:100D4000206A401C2062281EA5F10105DCDC07E0BA
:100D5000D4E9012118F8010B9047206A401C206259
:100D6000381EA7F10107F3DC2046FFF7BAFA03208B
:100D700011B041E62DE9F04F04460D46D21D22F098
:100D8000070089B0D0E900974846394601F070FE67
:100D90000246F80F01D02D2307E02068810701D516
:100DA0002B2302E0202101EAC0038DF820300BB193
:100DB000012000E00020032A824601D0072A04DB3C
:100DC0002946204600F0D6F93FE12078800601D47C
:100DD0000D2500E0E569C7F30A560D2D49DA00211B
:100DE0004FEA175B08464FF00000002F00F4400068
:100DF00007DA00EB80004FF4400100EBD07001EA0D
:100E000060008115012901DD4FF0FF3100224FEA1A
:100E1000850CBCF1180F06D31346ACF118004FF047
:100E20008052C24003E04FF4801323FA0CF30CF11C
:100E30000C0CBCF1200F04D3ACF1200C09FA0CF01F
:100E400001E007FA0CF000294FF0004801DD18B965
:100E50000FE00ED140450CD319EB02095F4121B9D7
:100E6000404502D19F4329EA0209BBEB175F00D03E
:100E7000761C2088000502D57B48784402E07A4839
:100E80007844193808AA302302F80A30037C0AF1A2
:100E90000101002E0AF1020A53546A4602DC4FF0A7
:100EA000300101E04FF031014FF001088DF80010E2
:100EB00002D0A6F2FF3603E059EA470100D06B4E9C
:100EC000002D02DC2178090704D54FF002082E21FD
:100ED0008DF80110C44600210BE0C7F303433F0126
:100EE000C35C491C6D1E02F80830052908F1010891
:100EF00001DA002DF1DC00210CE000EB1973491C34
:100F00001B786D1E082902F808304FEA091908F10C
:100F1000010801DA002DF0DC21688B0602D516E00D
:100F2000A8F10108E04505DD02EB080313F8013CD8
:100F3000302BF5D0B8F1000F09DD02EB080313F8F0
:100F4000013C2E2B03D1090701D4A8F10108002D83
:100F500005DD3E2102F808106D1E08F10108407CF5
:100F6000002E02F8080008F1010804DA2D2076426C
:100F700002F8080002E02B2002F808000A214FF4D2
:100F80007A70864208F101080BDB96FBF0F33033F0
:100F900002F8083096FBF0F308F1010800FB136635
:100FA00001E0642E0CDB642096FBF0F3303302F892
:100FB000083096FBF0F308F1010800FB136601E02E
:100FC0000A2E06DB96FBF1F0303002F8080008F13B
:100FD000010896FBF1F001FB1060303002F80800C8
:100FE000A16908F1010808EB050202EB0A00081AE2
:100FF000A0612078C00602D42046FFF75CF9216A80
:1010000008AE01EB0A00206204E0D4E9012116F8E1
:10101000010B9047BAF1010AF7D22078C00602D539
:101020002046FFF748F96E4609E016F8010B3E2806
:101030000FD0D4E901219047206A401C2062B8F10A
:101040000108F2D22046FFF74CF909B00320BDE8B1
:10105000F08F206A2844206203E0D4E90121302087
:1010600090476D1EEBD3F8E7DE1C000002FCFFFF8B
:1010700010B5436913B1AFF3008001E0FFF754F9F5
:10108000012010BD127800F124010A7000224A707C
:101090000122EDE711684FF0FF32E9E710B543692F
:1010A00013B1AFF3008001E0FFF7D6F9012010BDC6
:1010B000128800F1240182840022C2840122EDE71B
:1010C00011684FF0FF32E9E72DE9F04116460C4672
:1010D000054600F043F8036893F80101012807D0A2
:1010E000FF2C12D8185D80B101202C70BDE8F08172
:1010F000D3F807013246214603F20713C7182846E2
:10110000BC46BDE8F041002360474FF0FF30EDE7FB
:10111000754600F0EBF8AE4605006946534620F0F0
:101120000700854618B020B5FFF79AF8BDE82040C3
:101130004FF000064FF000074FF000084FF0000B93
:10114000AC46ACE8C009ACE8C009ACE8C009ACE802
:10115000C00921F007018D467047000010B500F06E
:1011600005F8001D10BD00BF6D1900000048704754
:10117000200000202DE9F0411F46044603260168A7
:10118000072A01F4006004DB08B116A505E016A5E6
:1011900003E008B115A500E015A521F010002060BE
:1011A000A069C01EA0610FB1401EA0612046FFF7DC
:1011B00082F84FB1D4E9012138469047206A401C9B
:1011C0002062C01C206206E0206AFAE7D4E901210F
:1011D00015F8010B9047761EF8D22046FFF781F8EC
:1011E000BDE8F0814E414E006E616E00494E4600F2
:1011F000696E66002DE9F047814616468AB035488B
:1012000078440DC88DE80D0032487844801C03AC4A
:101210000DC884E80D0041F69B300844372190FB4F
:10122000F1F290FBF1F5A5F1800501FB12041B3CE6
:1012300002D56442012000E00020DFF898A080463B
:101240000027FA44AAF1BE0A0EE0E0070AD03246AF
:10125000684607EB470101230AEB810101F0D1FA4F
:101260008DE8070064107F1C002CEED1194F7F44DD
:10127000AE3F19E0E80715D007EB04100DF1180A8E
:1012800090E80E008AE80E00C068F04201D198197B
:1012900008903246012306A903A801F0B2FA03AB75
:1012A00083E807006D10641C002DE3D14FF00103AB
:1012B00032466946B8F1000F03A802D001F08CFA5B
:1012C00001E001F09EFAC9E90001C9F808200AB05E
:1012D000BDE8F087E819000010B50446AFF30080C0
:1012E0002046BDE81040FEF7A6BF0000004870474A
:1012F000000000204FF0013C50F8042B51F8043B53
:101300009A4221D1A2EB0C03934313EACC1317D1D9
:1013100050F8042B51F8043B9A4215D1A2EB0C0370
:10132000934313EACC130BD150F8042B51F8043B30
:101330009A4209D1A2EB0C03934313EACC13DBD0FE
:101340004FF00000704700BFD01A01BAB1FA81F126
:1013500001F0180122FA01F0CB40DBB2C0B2C01A92
:10136000C1F120012CFA01F3D11A914311EAC31102
:10137000E6D1704701491820ABBEFEE72600020007
:101380007047000083B0029000200190FFE70198B1
:101390000299884213D2FFE700200090FFE70098EF
:1013A0004009E02806D8FFE700BFFFE700980130BA
:1013B0000090F4E7FFE7019801300190E7E703B000
:1013C0007047000088B007900691002005900490B7
:1013D00003900290019000900698C07800F00F00F2
:1013E00005900698C078C006002806D5FFE7069845
:1013F0008178059808430590FFE706980078002853
:101400004BD0FFE707980068019000200390FFE7AA
:10141000039807283DD8FFE70399012088400290F0
:10142000069800880299084004900498029988421E
:101430002AD1FFE703988000029002990F2088408C
:10144000009000990198884301900598029900FA4C
:1014500001F10198084301900698C078282806D128
:10146000FFE7039901208840079948610BE006983F
:10147000C078482806D1FFE70399012088400799E2
:101480000861FFE7FFE7FFE7FFE7039801300390FC
:10149000BEE7019807990860FFE706980088B0F555
:1014A000807F50DBFFE707984068019000200390A1
:1014B000FFE70398072842D8FFE7039800F10801E7
:1014C0000120884002900698008802990840049004
:1014D0000498029988422DD1FFE70398800002907A
:1014E00002990F208840009000990198884301904C
:1014F0000598029900FA01F10198084301900698B5
:10150000C078282808D1FFE7039800F108010120DE
:10151000884007994861FFE70698C078482808D1B5
:10152000FFE7039800F1080101208840079908614E
:10153000FFE7FFE7FFE7039801300390B9E7019861
:1015400007994860FFE708B07047000082B001903B
:10155000ADF80210BDF802000199486102B0704771
:1015600082B00190ADF80210BDF802000199086147
:1015700002B0704782B00190ADF802108DF80120E2
:101580009DF8010028B1FFE7BDF80200019908614C
:1015900004E0BDF8020001994861FFE702B070471E
:1015A00080B582B000208DF80700FFE79DF80700A6
:1015B000072820DCFFE79DF807000021009100F0DC
:1015C000DDF800988DF80600FFE79DF806007F28FB
:1015D0000ADCFFE7002000F093F9FFE79DF8060022
:1015E00001308DF80600F0E7FFE79DF807000130B5
:1015F0008DF80700DAE702B080BD000080B584B046
:1016000008200121029100F069FC14208DF80F00E0
:1016100003208DF80E00C020ADF80C0040F600400D
:10162000C4F20100019003A9FFF7CCFE0198029AD1
:101630004021FFF79FFF0198029A8021FFF79AFF50
:1016400004B080BD80B586B08DF8170000208DF8FD
:101650001600FFE79DF81600072821DCFFE79DF83C
:1016600017009DF81620802121FA02F2024040F670
:101670000040C4F201000390FFF77CFF0398402173
:1016800004910122FFF776FF039804990022FFF7E7
:1016900071FFFFE79DF8160001308DF81600D9E7BD
:1016A00040F60040C4F20100019040210291012265
:1016B000FFF760FF019802990022FFF75BFF06B079
:1016C00080BD000080B586B040F60040C4F2010045
:1016D00003908021029101220192FFF74BFF019AB2
:1016E000039840210491FFF745FF029903980022D7
:1016F0000592FFF73FFF03980499059AFFF73AFF19
:1017000006B080BD80B584B040F60040C4F2010050
:101710000190802102910022FFF72CFF01984021C7
:1017200001220392FFF726FF01980299039AFFF71F
:1017300021FF04B080BD000080B582B0FFF75EFFDE
:1017400000200190FFE7019844F61F61884205DC04
:10175000FFE7FFE7019801300190F4E7AE2000F0C9
:10176000BBF88D2000F0B8F8142000F0B5F8AF20D9
:1017700000F0B2F8FFF714FF02B080BD80B582B070
:101780008DF807008DF806109DF8070040F0B000B6
:1017900000F0A2F89DF806000009103000F09CF857
:1017A0009DF8060000F00F0000F096F802B080BD32
:1017B00080B582B08DF807008DF806108DF80520F1
:1017C0009DF807106FF0010000EB41009DF8062026
:1017D0006FF0070101EBC201C0B2C9B2FFF7CEFF43
:1017E00000208DF80400FFE79DF80400072819DCAD
:1017F000FFE79DF8051042F60440C0F6000000EB3C
:1018000001109DF8041008444FF60061CFF6FF71F7
:10181000405C00F075F8FFE79DF8040001308DF89A
:101820000400E1E79DF807104FF0FF3000EB4100A6
:101830009DF806206FF0070101EBC201C0B2C9B2EA
:10184000FFF79CFF00208DF80400FFE79DF80400DF
:10185000072819DCFFE79DF8051042F60440C0F6A2
:10186000000000EB01109DF8041008444FF60861D9
:10187000CFF6FF71405C00F043F8FFE79DF80400ED
:1018800001308DF80400E1E702B080BD80B584B07E
:101890008DF80F008DF80E10029200208DF80700D1
:1018A000FFE702989DF80710405C98B1FFE79DF8AC
:1018B0000F009DF80E109DF807301944029AD25C73
:1018C000C9B2FFF775FFFFE79DF8070001308DF8FB
:1018D0000700E6E704B080BD80B582B08DF8070050
:1018E000FFF7F0FE7820FFF7ADFE0020FFF7AAFE1D
:1018F0009DF80700FFF7A6FEFFF704FF02B080BDCA
:1019000080B582B08DF80700FFF7DCFE7820FFF786
:1019100099FE4020FFF796FE9DF80700FFF792FE24
:10192000FFF7F0FE02B080BD80B582B0142000F059
:10193000A7F88DF807009DF80700800728B9FFE792
:101940001420032100F084F9FFE702B080BD0000FD
:1019500080B584B0039000218DF809100D2000F0AF
:101960009DFA039993200870039920204870039BE7
:1019700069460DF1060008600C200222194600F0AD
:101980007FF98DF80B009DF80B0038BBFFE70020B6
:101990008DF80A00FFE79DF80A00032810DCFFE736
:1019A00003989DF80A10415C9DF8090048408DF8A5
:1019B0000900FFE79DF80A0001308DF80A00EAE708
:1019C0009DF8090003999DF80A20895C884204D09B
:1019D000FFE702208DF80B00FFE7FFE79DF80B0003
:1019E00004B080BD80B582B08DF807008DF8061078
:1019F0009DF8070000F044F88DF805009DF80700F9
:101A00009DF805109DF80620914300F047FA02B0BA
:101A100080BD000080B584B000F088F840F600007A
:101A2000C4F20100019008210291FFF78FFD0A2006
:101A30000390FFF7A7FC01980299FFF791FD039827
:101A4000FFF7A0FC00F068F82A208D2100F026FAAC
:101A50002B203E2100F022FA2D201E2100F01EFA3C
:101A60002C20002100F01AFA1520402100F016FA6F
:101A700011203D2100F012FAFFF756FF04B080BD9F
:101A800080B584B08DF80F0040F60000C4F201006C
:101A9000029010210191FFF759FD9DF80F10802051
:101AA00061F3460000F0A8F8002000F0A5F80199C5
:101AB000024602988DF80E20FFF752FD9DF80E00A9
:101AC00004B080BD80B584B08DF80F0002910D2068
:101AD000072100F0E3F99DF80F0002990870029BBE
:101AE000694601A808600C200122194600F0C8F8D8
:101AF0008DF807009DF8070028B9FFE7BDF804003E
:101B0000102804D0FFE702208DF80700FFE79DF8BA
:101B1000070004B080BD000080B501200F2100F057
:101B2000BDF90A20FFF72EFC80BD000080B58EB005
:101B300041F204000121079100F0D0F9A020ADF896
:101B40002200032002908DF82400182001908DF8C7
:101B5000250040F60000C4F2010005900DF12201BD
:101B60000391FFF72FFC039905984022ADF822203E
:101B700004228DF82520FFF725FC019B029A03998A
:101B80000598ADF822308DF82420102204928DF8AB
:101B90002520FFF717FC04990598FFF7E1FC05984D
:101BA0000821FFF7DDFC0020ADF826004FF482711C
:101BB000ADF82810ADF82A00ADF82C00ADF82E00D5
:101BC0004FF40071ADF830102821ADF83210ADF8A7
:101BD00034000720ADF8360043F20000C4F20100E3
:101BE00006900DF1260100F0D7F90698079900F04C
:101BF00091F90EB080BD000080B582B08DF807006D
:101C0000FFE743F20000C4F20100022100F098F95E
:101C100008B9FFE7F5E79DF8071043F20000C4F2AA
:101C2000010000F0AFF9FFE743F20000C4F2010049
:101C3000012100F085F908B9FFE7F5E743F200005C
:101C4000C4F2010000F098F9C0B202B080BD0000FB
:101C500080B582B08DF807008DF806109DF807005A
:101C6000FFF70EFF8DF805009DF807009DF80510A1
:101C70009DF80620114300F011F902B080BD00006C
:101C800080B58AB0DDF830C08DF8270008918DF856
:101C90001F20069302208DF8170000208DF81600F3
:101CA0008DF815009DF82700014603910C280BD0F4
:101CB000FFE703980E280ED1FFE712208DF81600DB
:101CC00010208DF8150007E077208DF816003020E1
:101CD0008DF8150000E0FFE79DF8160040F0800148
:101CE000022000F0DBF8042080210191FFF77AFE4A
:101CF00001990A20FFF7ACFF01200021029100F0BA
:101D0000CDF80298ADF81000FFE7BDF810009DF87F
:101D10001F1088420EDAFFE70898BDF81010415CEA
:101D2000092000F0BBF8FFE7BDF810000130ADF866
:101D30001000EAE79DF82710012000F0AFF89DF8A9
:101D400027000C2805D1FFE70D208021FFF780FF39
:101D5000FFE74FF4FA60ADF81000FFE70420FFF74B
:101D60008FFE8DF81300BDF810000138ADF810009B
:101D7000FFE7BDF810100020009089B1FFE79DF843
:101D800013100020C907009051B9FFE79DF8130018
:101D90009DF815100840B0FA80F040090090FFE768
:101DA0000098C0070028D9D1FFE70D208021FFF758
:101DB00019FEBDF8100000286CD0FFE70620FFF7E1
:101DC0005FFE10F01B0F60D1FFE700208DF81700B9
:101DD0009DF813009DF816100840C00720B1FFE7DA
:101DE00001208DF81700FFE79DF827000C284BD144
:101DF000FFE70A20FFF744FE8DF813000C20FFF7E1
:101E00003FFE00F007008DF814009DF8140050B15B
:101E1000FFE79DF813109DF8140000EBC10008388F
:101E20000C99088005E09DF81300C0000C9908800B
:101E3000FFE79DF8130020B9FFE701208DF813009C
:101E4000FFE79DF81300112804DBFFE710208DF851
:101E50001300FFE70020ADF81000FFE7BDF8100009
:101E60009DF8131088420EDAFFE70920FFF708FEFD
:101E70000699BDF810208854FFE7BDF81000013026
:101E8000ADF81000EAE7FFE703E002208DF8170045
:101E9000FFE7FFE79DF817000AB080BD80B584B06A
:101EA0008DF80F008DF80E1040F60000C4F201000E
:101EB000029010210191FFF749FB9DF80F107E2041
:101EC00000EA4100FFF798FE9DF80E00FFF794FE30
:101ED00001990298FFF744FB04B080BD82B00190E5
:101EE0008DF803109DF8030048B1FFE7019A41F215
:101EF0001801C4F2020108681043086008E0019A62
:101F000041F21801C4F20201086890430860FFE73B
:101F100002B0704782B001908DF803109DF8030065
:101F200030B1FFE70199088840F04000088005E0E3
:101F30000199088820F040000880FFE702B0704750
:101F400082B00190ADF8021000208DF801000198D8
:101F50000089BDF802100840000420B1FFE701200D
:101F60008DF8010003E000208DF80100FFE79DF8E7
:101F7000010002B07047000081B000900098808995
:101F800001B0704782B00190ADF80210BDF80200B8
:101F90000199888102B0704783B0029001910020BE
:101FA000ADF8020002980088ADF80200BDF802000A
:101FB00000F44150ADF80200019908884A881043A6
:101FC0008A881043CA8810430A8910434A891043FB
:101FD0008A891043C9890143BDF802000843ADF85E
:101FE0000200BDF80200029908800299888B20F453
:101FF000006088830198008A0299088203B07047C4
:1020000080B500F001F880BD84B0002003900290FC
:1020100041F20001C4F20201086840F48030086017
:10202000FFE741F20000C4F20200006800F4003053
:102030000290039801300390FFE70299002001907D
:1020400039B9FFE70398B0F5A06018BF01200190EF
:10205000FFE70198C0070028E3D1FFE741F2000045
:10206000C4F2020000688003002803D5FFE70120C6
:10207000029002E000200290FFE70298012851D16F
:10208000FFE742F20001C4F20201086840F01000CC
:102090000860086820F007000860086840F0020047
:1020A000086041F20401C4F202010091086808606E
:1020B00008680860086840F480600860086820F4D8
:1020C0007C100860086840F4E810086041F20001E4
:1020D000C4F20201086840F080700860FFE741F236
:1020E0000000C4F2020000688001002801D4FFE76C
:1020F000F5E741F20401C4F20201086820F0030090
:102100000860086840F002000860FFE741F2040040
:10211000C4F20200006800F00C00082801D0FFE7BC
:10212000F4E700E0FFE704B07047000080B541F23B
:102130000002C4F20202106840F00100106041F297
:102140000401C4F2020108680023CFF6FF0318401F
:10215000086010684FF6FF73CFF6F6631840106002
:10216000106820F480201060086820F4FE000860E9
:1021700041F20801C4F202014FF41F000860FFF7AA
:102180003FFF4EF60851CEF200014FF000600860AC
:1021900080BD000080B590B000200F90FFF7CCFA12
:1021A000FFF7FEF943F25B22C0F600020121084668
:1021B000FFF76CFBFFF72EFC6420FFF7E3F8FFE767
:1021C00026200DF11701FFF77DFC8DF816009DF814
:1021D000160000286ED1FFE70DF11700FFF7B8FBDE
:1021E0008DF816009DF81600002862D1FFE79DF8D3
:1021F00017209DF818309DF819009DF81AC06946FF
:10220000C1F804C0086043F24421C0F6000107A8E9
:102210000490FEF737F8049A02200121FFF736FBFD
:102220009DF81700122818D1FFE79DF818003428F0
:1022300013D1FFE79DF8190056280ED1FFE79DF84E
:102240001A00782809D1FFE743F20422C0F6000201
:1022500003200121FFF71AFB26E09DF81700AA28AA
:1022600018D1FFE79DF81800BB2813D1FFE79DF8B0
:102270001900CC280ED1FFE79DF81A00DD2809D1FE
:10228000FFE743F21422C0F6000203200121FFF70A
:10229000FDFA08E043F23422C0F6000203200121D7
:1022A000FFF7F4FAFFE7FFE74FF4FA70FFF76AF879
:1022B000FFE711E043F22422C0F6000202200121D0
:1022C0000391FFF7E3FA039943F2F412C0F6000218
:1022D0000320FFF7DBFAFFE76420FFF753F86FE70F
:1022E0005FEA400C08BF91F0000F4FEA8C234FEAE1
:1022F000C12243EA51514FEA1C5018BF00F5F0408B
:102300004FEA300018BF41F000415FEA6C5C00F01A
:102310002980BCF1FF3F08BF40F080407047130C9C
:1023200006BF12044FF0100C4FF0000C130E04BF48
:1023300012020CF1080C130F04BF12010CF1040C73
:10234000930F04BF92000CF1020CD30F04BF520094
:102350000CF1010C11464FF00002A0F11F00A0EBA0
:102360000C00704711F0004F08BF704731F000417A
:102370003FF4D5AF0B0C06BF09044FF0100C4FF023
:10238000000C0B0E04BF09020CF1080C0B0F04BF6C
:1023900009010CF1040C8B0F04BF89000CF1020C35
:1023A000CB0F04BF49000CF1010CCCF1200322FA41
:1023B00003F341EA030102FA0CF2A0EB0C0000F176
:1023C0000100704723F07F4720F07F4C80EA030034
:1023D00000F00040ACEB070303F57C5303F1FF036F
:1023E0002DE9804909B44FEA144324EA03484FEA2F
:1023F000154B25EA0B4E0FF2042606EB13273E7809
:1024000003FB0667C7F5000707FB06F64FEAD6464B
:1024100006F102064FEA543707FB066CCCF1005C6C
:102420004FEA1C472CEA074C0CFB06F507FB06F4A9
:1024300004EB15464FEA961649085FEA320234BFAC
:1024400000204FF000404FEAD13706FB07FC4FEA6F
:102450001C4C0CFB0BF7D21B03FB0CF761EB0701C9
:102460000CFB0EF7B0EB074072EB17420CFB08F7C2
:1024700034BFA2EB0742B2EB074261EB17414FEAD0
:102480000C444FEA910706FB07FC4FEA1C4C0CFB7F
:102490000BF7B0EBC74072EB573203FB0CF734BFBE
:1024A000A2EBC742B2EBC74261EB57310CFB0EF710
:1024B000B0EBC70072EB57720CFB08F734BFA2EB0E
:1024C000C702B2EBC70261EB57714FEA816141EA83
:1024D00092114FEA826242EA90124FEA806004EB66
:1024E000CC04039F4FEAD13706FB07FC4FEA1C4C94
:1024F0000CFB0BF7D21B03FB0CF761EB07010CFB8A
:102500000EF7B0EB074072EB17420CFB08F734BF35
:10251000A2EB0742B2EB074261EB17414FEA8C5541
:1025200004EB9C244FEA910706FB07FC4FEA1C4C86
:102530000CFB0BF7B0EBC74072EB573203FB0CF709
:1025400034BFA2EBC742B2EBC74261EB57310CFB81
:102550000EF7B0EBC70072EB57720CFB08F734BFF5
:10256000A2EBC702B2EBC70261EB57714FEA816180
:1025700041EA92114FEA826242EA90124FEA806089
:1025800015EB4C2544F100044FEAD13706FB07FC5C
:102590004FEA1C4C0CFB0BF7D21B03FB0CF761EB57
:1025A00007010CFB0EF7B0EB074072EB17420CFB78
:1025B00008F734BFA2EB0742B2EB074261EB1741C9
:1025C0004FEA813141EA92414FEA823242EA904237
:1025D0004FEA80304FEA0C7615EB1C1544F10004ED
:1025E00048EA03434EEA0B484FF0000EB2EB080CEA
:1025F00071EB030724BF624639464EEB0E0E4FF0D7
:10260000000B0018524149414BEB0B0BB2EB080C8D
:1026100071EB03077BF1000B24BF624639464EEB9A
:102620000E0E4FF0000B0018524149414BEB0B0BC3
:10263000B2EB080C71EB03077BF1000B24BF624681
:1026400039464EEB0E0E51EA020718BF46F001065E
:1026500016EB0E7655F1000254F1000103D5BDE8EA
:102660008901BDE80088BDE88901BDE80048B619C8
:10267000524141EB0101A3F10103704780807F7E4D
:102680007D7C7B7A797877767675747372717170E8
:102690006F6E6E6D6C6C6B6A6A696868676666659A
:1026A0006464636362616160605F5F5E5E5D5D5C28
:1026B0005C5B5B5A5A595958585757565655555599
:1026C0005454535352525251515050504F4F4F4EF9
:1026D0004E4D4D4D4C4C4C4B4B4B4A4A4A49494947
:1026E0004848484747474746464645454544444489
:1026F0004443434343424242424141419C46002BB2
:1027000030D477002BD04FEA37071CB503B44FF015
:1027100010004FF01001BAF1000F06D0BCF1000F0D
:10272000DCBF40F0080040F008014FF000000FBC93
:10273000BDE810400BF1010BBBF1010F08BF5FEAD0
:10274000170722BF12F1010211F101014FF0004100
:1027500043F1000300F0004043EA00007047F9D362
:102760005708D0E746EA06464FEA164613F1400FEF
:102770001FDD13F1200FDFBF16430A46002120336F
:102780005B42BED0C3F1200746EA06464FEA164632
:1027900002FA07F746EA070622FA03F2C3F1200716
:1027A00001FA07F742EA070221FA03F14FF00003AA
:1027B000A7E746EA020646EA06464FEA164646EA12
:1027C0000106BCBF46EA0646360C4FF000034FF048
:1027D00000024FF0000194E72DE9804C70B49A4656
:1027E000934691E8380007C831EA400C48BF34EA04
:1027F000430C03D5FFF7E6FDFFF780FFF0BCBDE813
:10280000008C2DE9804C70B49A46934691E83800CC
:1028100007C810F0804F08BF13F0804F03D100F0BD
:1028200005F8FFF76BFFF0BCBDE8008C20F07F4798
:1028300023F07F4C80EA030000F0004007EB0C031C
:10284000A3F57C53A3F1FE0392F0000F00F0B380D8
:1028500095F0000F00F077802DE901494FEA114013
:1028600021EA00484FEA144624EA064700FB06FC2A
:1028700008FB06F607FB08F818EB06484CEB164C6D
:1028800000FB07F718EB07484CEB17404FEA124BD9
:1028900022EA0B4E4FEA154625EA06470BFB06FCDB
:1028A0000EFB06F607FB0EFE1EEB064E4CEB164C1F
:1028B0000BFB07F71EEB074E4CEB174B18EB0B0807
:1028C00040F1000018EB0E0B58EB000840F100003F
:1028D0008F1A4FF000014FF000063CBFC943661B42
:1028E00014BFB5EB040C00213CBFC943F61B4FEAF3
:1028F000174427EA04454FEA1C472CEA074C04FB1F
:10290000076205FB07F70CFB05F616EB074642EBE3
:10291000174204FB0CFC16EB0C4642EB1C421BEB73
:10292000060658EB020241414EEA8E0E46EA9E062A
:1029300001D5BDE80189B619524141EB0101A3F16E
:102940000103BDE801894FEA144524EA05464FEA30
:10295000114721EA074C05FB07F406FB07F70CFBC0
:1029600006F111EB074144EB174405FB0CFC11EB9E
:102970000C4144EB1C444FEA124722EA074C05FB8A
:1029800007F206FB07F70CFB06F616EB074642EBD1
:10299000174205FB0CFC16EB0C4642EB1C456A1873
:1029A00054F1000148BF7047B619524141EB010193
:1029B000A3F10103704795F0000F37D04FEA1142A1
:1029C00021EA02464FEA144724EA074C02FB07F1CA
:1029D00006FB07F70CFB06F414EB074441EB174129
:1029E00002FB0CFC14EB0C4441EB1C414FEA154775
:1029F00025EA074C02FB07F506FB07F70CFB06F67A
:102A000016EB074645EB174502FB0CFC16EB0C4694
:102A100045EB1C42121951F1000148BF7047B6192D
:102A2000524141EB0101A3F1010370474FEA144504
:102A300024EA05464FEA114721EA074C05FB07F156
:102A400006FB07F70CFB06F212EB074241EB1741BE
:102A500005FB0CFC12EB0C4251EB1C414FF0000645
:102A600048BF7047921841EB0101A3F10103704781
:102A7000490050EAC12018BF04204A0D18BF40F099
:102A8000010040F2FF72B2EB515F08BF40F002005C
:102A9000012808BF0520704730380A2801D20120DC
:102AA000704700207047000010B500290AD0087850
:102AB000002807D005487844FEF71CFC002801D008
:102AC000002010BD0248784410BD0000C20700007D
:102AD000BA07000010B500290AD00878002807D0EE
:102AE00005487844FEF706FC002801D0002010BD00
:102AF0000248784410BD0000B2070000AA07000099
:102B0000FEF702B8FEF736B9000000000000000032
:102B10003031323334353637383941424344454613
:102B2000403058003031323334353637383961620D
:102B3000636465664030780004000008000000000F
:102B4000000000020001000010303132333435360D
:102B500037383961626364656678700030313233CA
:102B600034353637383941424344454658500000E1
:102B700002400000000000A000000000054000002E
:102B8000000000C8000000000C4000000000409C55
:102B900000000000194000000020BCBE0000000042
:102BA00034400000BFC91B8E00000004B540000087
:102BB000504BCFD06607E2CF010000006C4100000F
:102BC0003E8251AADFEEA73401000000D942000086
:102BD000DCB5A0E23A301F97FFFFFFFFB4450000CD
:102BE000FD25A0C8E9A3C14FFFFFFFFFFF3F000085
:102BF0000000008000000000FF3F00000000008097
:102C000000000000000000000000000000000000C4
:102C100000000000000000F8000000000000003389
:102C20003000000000100C06100C06000000000030
:102C30000000000040C07840C0784000043F040419
:102C40003F040400007088FC08300000001820FFDA
:102C5000211E0000F008F000E018000000211C0315
:102C60001E211E0000F00888700000001E21232491
:102C70001927211010160E000000000000000000AF
:102C800000000000000000E018040200000000073F
:102C90001820400000020418E00000000040201846
:102CA00007000000404080F0804040000202010F19
:102CB00001020200000000F0000000000101011FFD
:102CC00001010100000000000000000080B0700061
:102CD00000000000000000000000000000010101F1
:102CE0000101010100000000000000000030300080
:102CF000000000000000000080601804006018065A
:102D00000100000000E010080810E000000F102093
:102D100020100F00001010F8000000000020203FDD
:102D20002020000000700808088870000030282467
:102D30002221300000300888884830000018202008
:102D400020110E000000C02010F80000000704242D
:102D5000243F240000F80888880808000019212072
:102D600020110E0000E0108888180000000F1120CC
:102D700020110E0000380808C83808000000003F85
:102D8000000000000070880808887000001C2221E4
:102D900021221C0000E010080810E0000000312291
:102DA00022110F00000000C0C00000000000003031
:102DB0003000000000000080000000000000806083
:102DC0000000000000008040201008000001020404
:102DD00008102000404040404040400004040404EB
:102DE00004040400000810204080000000201008A7
:102DF00004020100007048080808F00000000030DC
:102E000036010000C030C828E810E0000718272469
:102E100023140B000000C038E0000000203C230217
:102E20000227382008F8888888700000203F20207A
:102E300020110E00C03008080808380007182020AC
:102E40002010080008F808080810E000203F2020A3
:102E500020100F0008F88888E8081000203F202084
:102E60002320180008F88888E8081000203F200078
:102E700003000000C03008080838000007182020B0
:102E8000221E020008F808000008F808203F21016F
:102E900001213F20000808F8080800000020203F1A
:102EA0002020000000000808F8080800C08080808A
:102EB0007F00000008F888C028180800203F200183
:102EC0002638200008F8080000000000203F2020DD
:102ED0002020300008F8F800F8F80800203F003FF4
:102EE000003F200008F830C00008F808203F20000C
:102EF00007183F00E01008080810E0000F1020201D
:102F000020100F0008F808080808F000203F2101F1
:102F100001010000E01008080810E0000F18242448
:102F200038504F0008F8888888887000203F2000BB
:102F3000030C302000708808080838000038202171
:102F400021221C00180808F8080818000000203F7B
:102F50002000000008F808000008F808001F2020E2
:102F600020201F000878880000C8380800000738B3
:102F70000E010000F80800F80008F800033C070004
:102F8000073C0300081868808068180820302C036C
:102F9000032C30200838C800C83808000000203F43
:102FA0002000000010080808C83808002038262132
:102FB00020201800000000FE020202000000007F36
:102FC00040404000000C30C0000000000000000144
:102FD0000638C00000020202FE000000004040402F
:102FE0007F00000000000402020204000000000054
:102FF00000000000000000000000000080808080D1
:1030000080808080000202040000000000000000B8
:103010000000000000008080808000000019242251
:1030200022223F2008F8008080000000003F11208D
:1030300020110E000000008080800000000E112092
:1030400020201100000000808088F800000E112070
:1030500020103F200000808080800000001F22227E
:1030600022221300008080F0888888180020203FEA
:10307000202000000000808080808000006B9494FD
:103080009493600008F8008080800000203F2100B9
:1030900000203F2000809898000000000020203F82
:1030A00020200000000000809898000000C0808070
:1030B000807F000008F8000080808000203F24020C
:1030C0002D302000000808F8000000000020203FFC
:1030D000202000008080808080808000203F2000B1
:1030E0003F20003F8080008080800000203F210042
:1030F00000203F200000808080800000001F2020F2
:1031000020201F00808000808000000080FFA12020
:1031100020110E000000008080808000000E112031
:1031200020A0FF80808080008080800020203F21C0
:103130002000010000008080808080000033242473
:1031400024241900008080E0808000000000001F1F
:10315000202000008080000000808000001F2020D0
:1031600020103F20808080000080808000010E3091
:103170000806010080800080008080800F300C03F2
:103180000C300F0000808000808080000020312EF5
:103190000E312000808080000080808080818E70D1
:1031A0001806010000808080808080000021302C83
:1031B0002221300000000000807C0202000000009C
:1031C000003F404000000000FF0000000000000041
:1031D000FF0000000002027C800000000040403F31
:1031E00000000000000601010202040400000000CB
:1031F000000000002020202020202020202020204F
:1032000020202000436172642031202020202020D3
:1032100020202000436172642032202020202020C2
:10322000202020004E6F2043617264202020202047
:1032300020202000556E6B6E6F776E2043617264A4
:1032400020202000436172643A2025303258253016
:1032500032582530325825303258005243353232F8
:103260002052656164657200A433000800000020EC
:1032700060060000540100081C000000430000002C
:10328000F8FFFFFF0C0000000E0000000F00000020
:103290002E0000001001000043000000F8FFFFFFB7
:1032A0000040404040404040404041414141414059
:1032B000404040404040404040404040404040400E
:1032C000400502020202020202020202020202029D
:1032D00002202020202020202020200202020202A2
:1032E00002029090909090901010101010101010FA
:1032F0001010101010101010101010100202020206
:103300000202888888888888080808080808080849
:103310000808080808080808080808080202020245
:10332000400000000000000000000000000000005D
:10333000000000000000000000000000000000008D
:10334000000000000000000000000000000000007D
:10335000000000000000000000000000000000006D
:10336000000000000000000000000000000000005D
:10337000000000000000000000000000000000004D
:10338000000000000000000000000000000000003D
:10339000000000000000000000000000000000002D
:0433A0000000000029
:0400000508000245A8
:00000001FF
