:020000040800F2
:100000008806002061020008690200086B020008EF
:100010006D0200086F020008710200080000000075
:100020000000000000000000000000007302000853
:10003000750200080000000077020008790200083D
:100040007B0200087B0200087B0200087B0200089C
:100050007B0200087B0200087B0200087B0200088C
:100060007B0200087B0200087B0200087B0200087C
:100070007B0200087B0200087B0200087B0200086C
:100080007B0200087B0200087B0200087B0200085C
:100090007B0200087B0200087B0200087B0200084C
:1000A0007B0200087B0200087B0200087B0200083C
:1000B0007B0200087B0200087B0200087B0200082C
:1000C0007B0200087B0200087B0200087B0200081C
:1000D0007B0200087B0200087B0200087B0200080C
:1000E0007B0200087B0200087B02000800F002F897
:1000F00000F0A6F814A696E8000CB244B344DA4522
:1001000001D100F09DF8BAE80F000FA696E8300084
:10011000A5EB040504EB0607AAEB0704A7F101070A
:100120004FEA15154FEA3414A4F10104AC4201D38F
:1001300000F086F813F0010F18BFFB1A43F001031B
:1001400000F001F8DBE71847C84B0000E84B00005F
:10015000103A24BF78C878C1FAD8520724BF30C8F3
:1001600030C144BF04680C60704700007047000055
:100170000023002400250026103A28BF78C1FBD8B0
:10018000520728BF30C148BF0B6070476E2900F08E
:100190003F81702900F08182662904F0F68165298B
:1001A00004F0F381672904F0F081612904F0EF8104
:1001B00003681B0A28BF41F08001692900F0EC8028
:1001C000642900F0E980752900F0E6806F2900F0CD
:1001D0000F82782900F04D82E92900F0A981E429F5
:1001E00000F0A681F52900F0A381EF2900F00C8230
:1001F000F82900F04C820368DB0928BF41F0800138
:10020000632900F04D87732900F05287E32900F03D
:100210005D87F32900F06287002070471FB500F06A
:10022000B3FF04000020002103F004FE401C6060C6
:100230000020002103F0E8FDE0601FBD10B510BDF7
:1002400000F074FF1146FFF7E9FF03F08FF901F0AA
:1002500051F803B4FFF7F2FF03BC01F099F8000076
:100260000948804709480047FEE7FEE7FEE7FEE74A
:10027000FEE7FEE7FEE7FEE7FEE7FEE70448054986
:10028000054A064B7047000099320008ED0000084F
:1002900088000020880600208802002088020020B4
:1002A0000FB41CB5084B06AA7B446946009005981C
:1002B00000F0C7F804460020694600F0D5F8204653
:1002C0001CBC5DF814FB0000BD01000070477047C6
:1002D000704770B5044685690068C10601D53026AF
:1002E00000E02026C00707D070BDD4E901213046C8
:1002F0009047206A401C20626D1EF6D570BD70B517
:10030000044685690078C00707D170BDD4E9012192
:1003100020209047206A401C20626D1EF6D570BDDB
:1003200009684A0501D540B27047C905FCD500B23D
:10033000704709684A0501D5C0B27047C905FCD5A8
:1003400080B2704770B50C460546012A05D0287862
:10035000800600D5EA69002302E0012305E05B1C6A
:10036000934202D2E05C0028F9D1A869E618C01ACD
:10037000A861286A184428622846FFF7AAFF04E00B
:10038000D5E9012114F8010B9047B442F8D328466F
:10039000FFF7B5FF70BD00002DE9F04106460024CF
:1003A00010687529314616A510D0FFF7B9FF00284F
:1003B00002DA404213A507E031688A0701D512A589
:1003C00002E0490704D511A5012401E0FFF7B1FFC0
:1003D00000210A2206F1240709E0B0FBF2FCB0FB81
:1003E000F2F302FB1C00303078541846491C0028F8
:1003F000F3D123462A463046BDE8F04100F061BA09
:10040000000000002D0000002B0000002000000074
:1004100011680268006A530501D508700AE0D30527
:1004200001D5088006E0130603D5C217C1E9000212
:1004300000E008600120704701694A1C02610878E9
:10044000704700B58FB0CDE9013100210591054914
:100450007944CDE903101146684600F029F90FB040
:1004600000BD0000E5FFFFFF0A6802F8010B0A600B
:10047000704700002DE9FF5F15468A460446DFF805
:10048000AC80F8440027D8E900103E46CDE90010C2
:1004900010E03AF816106A4602A800F023FE411C4C
:1004A00007D02178890603D5E269391891420DD821
:1004B0000744761C2078800602D5E069B84205DD45
:1004C000AE42E6DB3AF816000028E2D1A069C01B74
:1004D000A0612046FFF7FDFED8E90010CDE900102D
:1004E000002017E03AF818106A4602A800F0FAFD5A
:1004F000B0F1FF3F81460BD000250DF1080B05E060
:10050000D4E901211BF8050090476D1C4D45F7D338
:1005100008F10100B0428046E4DB206A38442062E2
:100520002046FFF7ECFEBDE8FF9F00000E410000F3
:100530002DE9F0418046D21D22F007020025D2E9C4
:100540000002F52915A614D0011E72F1000106DA89
:100550000023D0EB030063EB020211A608E0D8F8F9
:1005600000108B0701D50FA602E0490701D50EA6A2
:1005700001251146002408F1240704E000F05CF98D
:1005800030323A55641C50EA0102F7D12B4632460C
:1005900021464046BDE8F04100F093B9000000005C
:1005A0002D0000002B0000002000000030B40021CE
:1005B00000F1240408E002F00705D208303542EAD1
:1005C0004372DB086554491C52EA0305F3D1046801
:1005D000002310A2250708D504F020040C4304D002
:1005E000C46901230CA2641EC46130BC00F069B967
:1005F00010B5044621461068FFF79BFE02462046D0
:10060000BDE810400023D1E7D21D22F00701D1E957
:100610000023CBE70000000030000000F0B40D46DE
:100620000188090502D5214C7C4402E01F4C7C4422
:100630000E34002100F1240608E002F00F07120931
:10064000E75D42EA03721B097754491C52EA03072B
:10065000F3D102780023120704D5702D06D009B11A
:10066000022311342246F0BC00F02BB901231034D0
:10067000F8E770B504460D4621461068FFF759FEAD
:10068000024629462046BDE870400023C6E7D21D39
:1006900022F00703D3E90023C0E70368126843F0A0
:1006A000200303600823C3610023B7E7703F000005
:1006B0002DE9F05F894604464FF0000ADFF874B177
:1006C000FB44C0F820A02046E1688847002874D089
:1006D000252806D0D4E901219047206A401C2062D9
:1006E000F1E700265F462046E16888472028054656
:1006F00007DB312D05D2781910F8200C08B106431C
:10070000F1E7B00701D526F00406C4F81CA00027C5
:10071000C4F818A02A2D09D0284603F06DFB38B381
:1007200004EB8708303DC8F8185019E059F8041B4D
:10073000204604EB87029161E1688847012F054656
:1007400018D1E069002820DA26F020061DE0D8F84C
:10075000180000EB800005EB40003038C8F81800A6
:100760002046E1688847054603F046FB0028EED1A5
:10077000012F0AD02E2D08D12046E16888477F1C22
:100780000546022F46F02006C4DBA069002803DAE4
:10079000404246F00106A061F00701D026F01006A5
:1007A0006C2D0BD0682D09D04C2D39D06A2D35D049
:1007B000742D35D07A2D33D016E038E0E1682F461D
:1007C00020468847B842054609D16C2F26D04FF401
:1007D0008060E168064320468847054604E06C2FA8
:1007E0001AD04FF4807006430DB3A5F141001928CB
:1007F00002D8203546F400664A462946204626603F
:100800004E46FFF7C3FC80B101280BD0F61D26F041
:10081000070000F1080956E74020E4E78020D8E708
:100820000020D6E706F104094DE7284652E7206A82
:10083000BDE8F09F003F000030B5B0F10A0271F151
:1008400000034FEA900E4EEA817EB0EB0E0061EBA2
:1008500091014FEA101E4EEA017E10EB0E0041EBB3
:1008600011114FEA102E4EEA016E10EB0E0041EB13
:1008700011214FEA104E4EEA014E10EB0E0041EBF3
:100880001141401841F100014FEAD00040EA4170A7
:100890004FEAD1014FEA810444EA907410EB8005DD
:1008A00044EB01046D1944EB0404521BA3414FF0C7
:1008B000000348BF0A3200D530BD401C41F10001A1
:1008C00030BD2DE9F0470D4699469246044600F1A9
:1008D00024080168880604D5E06921F01001216030
:1008E00000E00120A84201DD471B00E00027A169CC
:1008F0007A1902EB0900081AA0612078C00602D418
:100900002046FFF7E6FC002608E0D4E901211AF8AA
:1009100006009047206A401C761C20624E45F4DB9E
:100920002078C0060AD52046FFF7D3FC06E0D4E9BC
:10093000012130209047206A401C2062381EA7F118
:100940000107F4DC07E0D4E9012118F8050090471D
:10095000206A401C2062281EA5F10105F3DC204618
:10096000FFF7CDFC2078000602D50220BDE8F08715
:100970000120FBE72DE9FF4F0C461E464FF0FF37E5
:100980008BB0D2E90001DDF860800A908A46C1F39D
:100990000A5505B93D46002108464FF00000BAF15E
:1009A000000F00F4400005DA00EB80004FF4400136
:1009B00001EA50004FEA9059B9F1010F00DDB94644
:1009C0000A9850EA4A000ED044F61050A5F2FF35BE
:1009D00045432F14B8F1000F1ED07542291E1EDDAD
:1009E000C9F100021CE0B8F1010F4FF0000001D086
:1009F000302103E0F24305E02154401CB042FBDB10
:100A000030460022002121540B99C1F80880C1E929
:100A100000200FB0BDE8F08FBD1B6D1CDEE74A461D
:100A200000DA694206A800F0F3FB06AB93E8070082
:100A300003AB83E8070050460A9902F000FE8DE8F8
:100A40000700A0F500501F3800900398002D0ADD24
:100A500042F21F014A460844002303A90390684656
:100A600003F06AF809E0A0F500504A461F38002359
:100A700003A90390684603F074F88DE807000004AA
:100A8000000C03D04FF0FF30410800E01046B8F1F1
:100A9000000F03D00022009215461EE0751E05D4FB
:100AA000FFF7CAFE303262556D1EF9D5B3460122FA
:100AB000084302D000227F1C04E02078302801D1B6
:100AC00000227F1E002A099784D01DE0112D07DA2D
:100AD000FFF7B2FE303262556D1C50EA0102F5D1CB
:100AE000084302D00098C8B10EE00021681E05E05E
:100AF000235C625C63542254401E491C8142F7DB34
:100B0000AB46A81B401E0990002004F80B000B9870
:100B1000099AC0F80880C0E9002B7AE711264FF047
:100B2000000857E72DE9F04F88460446D21D22F011
:100B3000070191B0D1E90001CDE90A0103F048F9BC
:100B400002460B98C00F01D02D2007E020688107D6
:100B500001D52B2002E0202101EAC000032A0990E0
:100B600001D0072A05DB03464146204600F010FB72
:100B70000BE12078800601D5E06900E00620B8F19D
:100B8000650F814606D0B8F1660F18D0B8F1670F2F
:100B900070D131E00020B9F1110F009001DB112379
:100BA00001E009F101030AAA01A90CA8FFF7E2FE7E
:100BB000DDE90C70002609F10105834647E00120BC
:100BC0004B4600904FF000470AAA01A90CA8FFF776
:100BD000D1FEDDE90DB00C995D46002610B909F192
:100BE00001000D18B9EB050003D4C0F1FF3609F17F
:100BF0000105A5EB09002BE0B9F1010F01DA4FF077
:100C000001090020B9F1110F0090484601DD1123C0
:100C100000E003460AAA01A90CA8FFF7ABFEDDE934
:100C20000C704D4600268346207800070AD4AB4559
:100C300000DA5D4601A8012D04DD411911F8011CFF
:100C4000302907D04F4502DA17F1040F04DA0120EA
:100C500082460FE06D1EEEE7002F02DCED1B3E44E6
:100C600003E0781CA84200DD7D1CB81B00F1010ADE
:100C70004FF000472078000703D4AA4501DB4FF06E
:100C8000FF3A0021B7F1004F0DF143088DF84310F2
:100C900024D002202B23002F01DA7F422D230A21AA
:100CA000021EA0F1010000DC5FB197FBF1FC97FB95
:100CB000F1F201FB1C7C17460CF1300C08F801CD59
:100CC000EEE7A8F1010003702188090501D545214F
:100CD00000E06521A0F1010800F8011C09980FA9A6
:100CE000A1EB0807FF1D00B10120411901EBEA70DB
:100CF000A1693844081A401EA0612078C00602D4B9
:100D00002046FFF7E6FA099828B1D4E90121904777
:100D1000206A401C20622078C00622D52046FFF7BA
:100D2000D8FA1EE0002E04DBB34502DD01A8805D89
:100D300000E03020D4E901219047206A401C206265
:100D4000761CAAF101005FEA000A0AD100F01CFA41
:100D5000C0680168405CD4E901219047206A401CCA
:100D60002062281EA5F10105DCDC07E0D4E90121A1
:100D700018F8010B9047206A401C2062381EA7F12A
:100D80000107F3DC2046FFF7BAFA032011B041E671
:100D90002DE9F04F04460D46D21D22F0070089B020
:100DA000D0E900974846394603F012F80246F80F9A
:100DB00001D02D2307E02068810701D52B2302E015
:100DC000202101EAC0038DF820300BB1012000E0A2
:100DD0000020032A824601D0072A04DB2946204648
:100DE00000F0D6F93FE12078800601D40D2500E01F
:100DF000E569C7F30A560D2D49DA00214FEA175B62
:100E000008464FF00000002F00F4400007DA00EB26
:100E100080004FF4400100EBD07001EA60008115C2
:100E2000012901DD4FF0FF3100224FEA850CBCF1B2
:100E3000180F06D31346ACF118004FF08052C24091
:100E400003E04FF4801323FA0CF30CF10C0CBCF10B
:100E5000200F04D3ACF1200C09FA0CF001E007FAE2
:100E60000CF000294FF0004801DD18B90FE00ED159
:100E700040450CD319EB02095F4121B9404502D12D
:100E80009F4329EA0209BBEB175F00D0761C20883C
:100E9000000502D57B48784402E07A487844193846
:100EA00008AA302302F80A30037C0AF10101002E5F
:100EB0000AF1020A53546A4602DC4FF0300101E0A5
:100EC0004FF031014FF001088DF8001002D0A6F26A
:100ED000FF3603E059EA470100D06B4E002D02DCDB
:100EE0002178090704D54FF002082E218DF8011052
:100EF000C44600210BE0C7F303433F01C35C491C18
:100F00006D1E02F80830052908F1010801DA002DEC
:100F1000F1DC00210CE000EB1973491C1B786D1EFD
:100F2000082902F808304FEA091908F1010801DA26
:100F3000002DF0DC21688B0602D516E0A8F101082F
:100F4000E04505DD02EB080313F8013C302BF5D03A
:100F5000B8F1000F09DD02EB080313F8013C2E2B5A
:100F600003D1090701D4A8F10108002D05DD3E21B8
:100F700002F808106D1E08F10108407C002E02F8EE
:100F8000080008F1010804DA2D20764202F8080072
:100F900002E02B2002F808000A214FF47A70864202
:100FA00008F101080BDB96FBF0F3303302F8083050
:100FB00096FBF0F308F1010800FB136601E0642ED4
:100FC0000CDB642096FBF0F3303302F8083096FB1C
:100FD000F0F308F1010800FB136601E00A2E06DBBE
:100FE00096FBF1F0303002F8080008F1010896FB9A
:100FF000F1F001FB1060303002F80800A16908F13F
:10100000010808EB050202EB0A00081AA06120782B
:10101000C00602D42046FFF75CF9216A08AE01EB56
:101020000A00206204E0D4E9012116F8010B904780
:10103000BAF1010AF7D22078C00602D52046FFF7A0
:1010400048F96E4609E016F8010B3E280FD0D4E9A6
:1010500001219047206A401C2062B8F10108F2D2B9
:101060002046FFF74CF909B00320BDE8F08F206A55
:101070002844206203E0D4E90121302090476D1E0E
:10108000EBD3F8E74E37000002FCFFFF10B54369D1
:1010900013B1AFF3008001E0FFF754F9012010BD58
:1010A000127800F124010A7000224A700122EDE753
:1010B00011684FF0FF32E9E710B5436913B1AFF3A0
:1010C000008001E0FFF7D6F9012010BD128800F181
:1010D000240182840022C2840122EDE711684FF0CE
:1010E000FF32E9E72DE9F04116460C46054600F0CF
:1010F00043F8036893F80101012807D0FF2C12D8A8
:10110000185D80B101202C70BDE8F081D3F8070193
:101110003246214603F20713C7182846BC46BDE8ED
:10112000F041002360474FF0FF30EDE7754600F0D7
:10113000EBF8AE4605006946534620F007008546A9
:1011400018B020B5FFF79AF8BDE820404FF0000630
:101150004FF000074FF000084FF0000BAC46ACE832
:10116000C009ACE8C009ACE8C009ACE8C00921F08E
:1011700007018D467047000010B500F005F8001D0E
:1011800010BD00BFB12C00000048704730000020A7
:101190002DE9F0411F46044603260168072A01F4A1
:1011A000006004DB08B116A505E016A503E008B150
:1011B00015A500E015A521F010002060A069C01E53
:1011C000A0610FB1401EA0612046FFF782F84FB129
:1011D000D4E9012138469047206A401C2062C01C97
:1011E000206206E0206AFAE7D4E9012115F8010B34
:1011F0009047761EF8D22046FFF781F8BDE8F081CF
:101200004E414E006E616E00494E4600696E6600AA
:101210002DE9F047814616468AB0354878440DC816
:101220008DE80D0032487844801C03AC0DC884E87A
:101230000D0041F69B300844372190FBF1F290FB02
:10124000F1F5A5F1800501FB12041B3C02D56442B7
:10125000012000E00020DFF898A080460027FA4433
:10126000AAF1BE0A0EE0E0070AD03246684607EB54
:10127000470101230AEB810102F073FC8DE80700AE
:1012800064107F1C002CEED1194F7F44AE3F19E053
:10129000E80715D007EB04100DF1180A90E80E00CE
:1012A0008AE80E00C068F04201D1981908903246D1
:1012B000012306A903A802F054FC03AB83E807004E
:1012C0006D10641C002DE3D14FF0010332466946D6
:1012D000B8F1000F03A802D002F02EFC01E002F0EA
:1012E00040FCC9E90001C9F808200AB0BDE8F08750
:1012F0005834000010B50446AFF300802046BDE826
:101300001040FEF7A6BF0000004870471000002004
:101310004FF0013C50F8042B51F8043B9A4221D184
:10132000A2EB0C03934313EACC1317D150F8042B10
:1013300051F8043B9A4215D1A2EB0C03934313EAF4
:10134000CC130BD150F8042B51F8043B9A4209D12D
:10135000A2EB0C03934313EACC13DBD04FF0000055
:10136000704700BFD01A01BAB1FA81F101F018013B
:1013700022FA01F0CB40DBB2C0B2C01AC1F12001A9
:101380002CFA01F3D11A914311EAC311E6D1704747
:1013900001491820ABBEFEE726000200704700009E
:1013A00080B584B008200121019101F0CDFDC0205D
:1013B000ADF80C0014208DF80F0003208DF80E00FE
:1013C00040F60040C4F2010003A900F0C5FA01F0A4
:1013D000D7FD01F0E9FD0A20029000F083FA0198A0
:1013E00001F030F8029800F07DFA072001F02AF8A9
:1013F000029800F077FA102001F024F804B080BDC4
:1014000080B586B0049000200290FFE70298022881
:101410001EDCFFE70DF10E00022100F037FE08B9D7
:10142000FFE715E0782000F05DFA102001F00AF8DF
:101430000A2000F057FA0298022804D1FFE74FF083
:10144000FF3005901FE0FFE7029801300290DDE7D2
:101450009DF80E109DF80F0040EA0120ADF806003F
:10146000049868B1FFE7BDF8060002F0B9FE49F63E
:101470009A11C3F6997102F0BDFD04990860FFE767
:1014800000200590FFE7059806B080BD80B582B0CA
:101490000420012101F058FD10208DF807000220E2
:1014A0008DF806004FF48070ADF8040040F600009F
:1014B000C4F2010001A900F04FFA00F003F802B0F5
:1014C00080BD000080B540F60000C4F201004FF47A
:1014D000807100F09DFB80BD80B540F60000C4F235
:1014E00001004FF4807100F09DFB80BD80B592B08B
:1014F000119010910F9211980021C4F2482102F02E
:1015000058FD38B9FFE740F27601C2F20001012030
:10151000087006E040F27601C2F200010020087077
:10152000FFE740F27500C2F20000007800286DD09D
:10153000FFE71099B1F90000B1F902200792B1F963
:101540000410089140F27C02C2F20002B2F90010CD
:10155000B2F902300993B2F904200A92401A0B90B2
:1015600000280C9002D50B9840420C9009990798DE
:101570000C9A0492401A05900028069002D505980E
:10158000404206900A990898049A069B1A440192D0
:10159000401A02900028039002D50298404203901E
:1015A0000198039908440E900E9840F6B93188428C
:1015B0000DDBFFE740F27601C2F200010120487026
:1015C00040F27A01C2F200010F2008701DE040F2E3
:1015D0007A00C2F20000007801280EDBFFE740F23B
:1015E0007A01C2F2000108780138087040F27601F1
:1015F000C2F200010120487006E040F27601C2F21A
:10160000000100204870FFE7FFE70CE040F27501A1
:10161000C2F200010120087040F27601C2F200011E
:1016200000204870FFE740F27000C2F2000000683E
:10163000002102F0C5FC58BBFFE70F9840F2700193
:10164000C2F20001096802F02BFF0D900D980021F5
:1016500002F0AFFC28B9FFE70D9880F000400D9034
:10166000FFE70D980021C4F2482102F0A9FC38B927
:10167000FFE740F27601C2F200010120887006E027
:1016800040F27601C2F2000100208870FFE7FFE718
:101690001098008840F27C01C2F200010880109886
:1016A000408848801098808888800F9840F27001A8
:1016B000C2F20001086012B080BD000080B584B0A5
:1016C0004CF6D400C0F2F550019042F60140C0F251
:1016D0009920009026200DF10B0101F029FA8DF8D8
:1016E0000A009DF80A0000284DD1FFE70DF10B001C
:1016F00001F064F98DF80A009DF80A00002841D134
:10170000FFE70DF10B0001A900F040F8C0B1FFE7C1
:1017100040F27900C2F20000007880B1FFE740F2A9
:101720007901C2F200010020087000F0D9FEFFF735
:10173000C9FE00F06BFF642000F0D4F8FFE71CE066
:101740000DF10B00694600F021F8A8B1FFE740F267
:101750007900C2F20000007801280CD0FFE740F2C7
:101760007901C2F200010120087000F04FFF6420EF
:1017700000F0B8F8FFE7FFE7FFE74FF4FA7000F07A
:10178000B1F8FFE7FFE704B080BD000083B002902E
:10179000019102980178019802780020914200900E
:1017A0001CD1FFE7029841780198427800209142CD
:1017B000009013D1FFE70298817801988278002089
:1017C000914200900AD1FFE70298C0780199C97848
:1017D000401AB0FA80F040090090FFE7009800F04E
:1017E000010003B07047000080B582B000208DF882
:1017F000070040F27900C2F200000078012822D1EF
:10180000FFE740F27600C2F200000178012000906C
:1018100099B9FFE740F27600C2F20000417801205A
:10182000009051B9FFE740F27600C2F200008078E4
:10183000002818BF01200090FFE7009800F0010089
:101840008DF80700FFE79DF8070070B3FFE740F24F
:101850007400C2F2000001780131017000780328A1
:1018600020DBFFE740F27401C2F2000100200870A3
:1018700040F28200C2F20000007848B1FFE700F0B9
:1018800025FE40F28201C2F200010020087008E04B
:1018900000F026FE40F28201C2F200010120087031
:1018A000FFE7FFE7FFF718FE1AE040F27401C2F20B
:1018B00000010020087040F28201C2F200010870AD
:1018C00040F27900C2F20000007818B9FFE700F09A
:1018D00007FE02E000F0FAFDFFE7FFF7F3FDFFE788
:1018E00002B080BD83B0029000200190FFE7019814
:1018F0000299884213D2FFE700200090FFE700988A
:101900004009E02806D8FFE700BFFFE70098013054
:101910000090F4E7FFE7019801300190E7E703B09A
:101920007047000082B0019000200090FFE700980F
:10193000019901EB8101B0EB410F0AD2FFE700BF33
:1019400000BF00BF00BF00BFFFE70098013000905C
:10195000EDE702B07047000088B0079006910020C4
:101960000590049003900290019000900698C07832
:1019700000F00F0005900698C078C006002806D534
:10198000FFE706988178059808430590FFE70698D9
:10199000007800284BD0FFE70798006801900020EE
:1019A0000390FFE7039807283DD8FFE7039901203C
:1019B0008840029006980088029908400490049894
:1019C000029988422AD1FFE7039880000290029989
:1019D0000F20884000900099019888430190059855
:1019E000029900FA01F10198084301900698C07825
:1019F000282806D1FFE7039901208840079948610C
:101A00000BE00698C078482806D1FFE7039901202B
:101A1000884007990861FFE7FFE7FFE7FFE70398C2
:101A200001300390BEE7019807990860FFE7069828
:101A30000088B0F5807F50DBFFE707984068019091
:101A400000200390FFE70398072842D8FFE7039898
:101A500000F1080101208840029006980088029950
:101A6000084004900498029988422DD1FFE703981A
:101A70008000029002990F20884000900099019800
:101A8000884301900598029900FA01F101980843F2
:101A900001900698C078282808D1FFE7039800F144
:101AA00008010120884007994861FFE70698C0783F
:101AB000482808D1FFE7039800F108010120884079
:101AC00007990861FFE7FFE7FFE7039801300390FC
:101AD000B9E7019807994860FFE708B07047000030
:101AE00086B005908DF813100020039002900190AD
:101AF00000909DF817000006002806D5FFE71C207F
:101B0000C4F201000068019005E00420C4F2010065
:101B100000680190FFE70598C0F303400090BDF80E
:101B200014000390059800F44010B0F5401F0CD14C
:101B3000FFE7019820F0706001900421C4F20101D8
:101B4000086820F07060086023E09DF81600C00669
:101B500000280DD5FFE700990320884002900299E4
:101B6000019888430190019840F0706001900FE067
:101B70000398059A6FF00F0101EA524100FA01F152
:101B8000019888430190019840F070600190FFE750
:101B9000FFE79DF8130060B1FFE70398059A6FF027
:101BA0000F0101EA524100FA01F101980843019046
:101BB000FFE79DF817000006002806D5FFE701980B
:101BC0001C21C4F20101086005E001980421C4F25F
:101BD00001010860FFE706B07047000082B0019085
:101BE000ADF8021000208DF8010001988068BDF862
:101BF0000210084204D0FFE701208DF8010003E045
:101C000000208DF80100FFE79DF8010002B0704749
:101C100082B00190ADF80210BDF802000199486150
:101C200002B0704782B00190ADF80210BDF802001A
:101C30000199086102B0704782B00190ADF80210BE
:101C40008DF801209DF8010028B1FFE7BDF80200E2
:101C50000199086104E0BDF8020001994861FFE7BD
:101C600002B0704780B588B00020059040F6004073
:101C7000C4F20100029001210391FFF7C9FF022085
:101C8000FFF750FE02980399FFF7CCFF0F20FFF7F4
:101C900049FE02980399FFF7BBFF42F210700690CD
:101CA000FFE740F60040C4F201000221FFF796FF73
:101CB00001460020019031B9FFE70698002818BFBF
:101CC00001200190FFE70198C00720B1FFE70698C7
:101CD00001380690E5E7069828B9FFE70020CBF623
:101CE0008070079043E0002005904CF25030069041
:101CF000FFE740F60040C4F201000221FFF76EFF4B
:101D0000014600200129009006D1FFE7069800282F
:101D100018BF01200090FFE70098C00738B1FFE727
:101D2000059801300590069801380690E1E706987D
:101D300028B9FFE70020CBF68070079017E00598E0
:101D400002F066FA44F29631C3F60B4102F0DCFA77
:101D500004900498002102F025F928B9FFE700203B
:101D6000CBF68070079002E004980790FFE7079891
:101D700008B080BD80B584B008200121029101F037
:101D8000E3F8029810218DF80F1003218DF80E1042
:101D9000ADF80C0040F60040C4F20100019003A928
:101DA0000091FFF7D9FD0099019804228DF80F20CA
:101DB0000222ADF80C20FFF7CFFD01980299FFF742
:101DC00027FF04B080BD000080B582B040F600401F
:101DD000C4F2010000904FF480710191FFF718FFE9
:101DE00001F01AF900984FF40071FFF711FF00F0AD
:101DF0001DF800980199FFF715FF00F017F80098FB
:101E00000199FFF705FF02B080BD000080B501F029
:101E1000C1F801F017F901F0F5F800F017F801F03A
:101E2000AFF800F013F801F0B5F880BD81B00A20DA
:101E30008DF80300FFE79DF80300411E8DF80310A5
:101E400008B1FFE7F7E701B07047000081B0282034
:101E5000ADF80200FFE7BDF80200411EADF8021028
:101E600008B1FFE7F7E701B07047000080B582B026
:101E700040F60040C4F2010000904FF480710191DF
:101E8000FFF7C6FE01F0C8F800984FF40071FFF7A5
:101E9000C9FEFFF7CBFF00980199FFF7C3FEFFF7DC
:101EA000C5FF00980199FFF7B3FE02B080BD0000A6
:101EB00080B501F06FF801F0C5F801F075F8FFF793
:101EC000C5FF01F05DF8FFF7C1FF01F063F880BDC9
:101ED00080B584B08DF80F00002002908DF80D00C1
:101EE00001F06CF802988DF80E00FFE79DF80E00E7
:101EF00007282CDCFFE740F60040C4F20100019007
:101F00004FF480710091FFF783FEFFF78FFF009978
:101F10000198FFF787FE01989DF80D1049008DF894
:101F20000D104FF40071FFF759FE38B1FFE79DF82F
:101F30000D0040F001008DF80D00FFE7FFF776FF80
:101F4000FFE79DF80E0001308DF80E00CEE79DF8FA
:101F50000F0018B1FFE7FFF737FF02E0FFF786FF3A
:101F6000FFE79DF80D0004B080BD000080B582B091
:101F70008DF80700002000908DF8050001F030F882
:101F800000988DF80600FFE79DF8060007281FDC83
:101F9000FFE700F0FFFFFFF759FF00F0F1FF9DF8AA
:101FA000050040008DF8050001F060F838B1FFE74A
:101FB0009DF8050040F001008DF80500FFE7FFF7F0
:101FC00045FFFFE79DF8060001308DF80600DBE7CE
:101FD0009DF8070018B1FFE7FFF718FF02E0FFF7D1
:101FE00067FFFFE79DF8050002B080BD80B584B0B3
:101FF0008DF80F008DF80E1002928DF8073000F06A
:1020000013F99DF80F0000F087F800F073F99DF8C0
:102010000E0000F081F800F06DF900F005F99DF870
:102020000F0040F0010000F077F800F063F90020A5
:102030008DF80600FFE79DF806009DF8071088421E
:102040001FDAFFE79DF806009DF807100139884266
:1020500008D1FFE70020FFF73BFF02999DF806201B
:10206000885407E00120FFF733FF02999DF806200E
:102070008854FFE7FFE79DF8060001308DF8060061
:10208000D9E700F003F904B080BD000080B584B04A
:1020900002908DF8071000F0E9F8472000F08EF864
:1020A00000F06EF930B1FFE700F014F94FF0FF30A7
:1020B00003902EE000208DF80600FFE79DF8060053
:1020C0009DF8071088421FDAFFE79DF806009DF88B
:1020D00007100139884208D1FFE70020FFF746FFCB
:1020E00002999DF80620885407E00120FFF73EFF83
:1020F00002999DF806208854FFE7FFE79DF8060047
:1021000001308DF80600D9E700F0E4F800200390D4
:10211000FFE7039804B080BD80B584B08DF80F0050
:1021200000F07AFF40F60040C4F201004FF48071E5
:10213000FFF76EFD00208DF80E00FFE79DF80E0002
:10214000072838DCFFE79DF80F000006002809D5B6
:10215000FFE740F60040C4F201004FF40071FFF7C2
:1021600061FD08E040F60040C4F201004FF4007148
:10217000FFF74EFDFFE79DF80F0040008DF80F00C0
:10218000FFF754FE40F60040C4F2010001904FF406
:1021900080710291FFF746FDFFF748FE0198029912
:1021A000FFF736FDFFF742FEFFE79DF80E00013016
:1021B0008DF80E00C2E704B080BD000080B582B08B
:1021C0008DF8070000F03EFF00F0E4FE00208DF8DF
:1021D0000600FFE79DF80600072822DCFFE79DF8D0
:1021E00007000006002803D5FFE700F0DDFE02E04F
:1021F00000F008FFFFE79DF8070040008DF807009A
:10220000FFF724FE00F0BCFEFFF720FE00F0C2FE48
:10221000FFF71CFEFFE79DF8060001308DF8060071
:10222000D8E702B080BD000080B584B000F0F4FEB5
:1022300040F60040C4F2010002904FF40071019199
:10224000FFF7F0FC02984FF480710391FFF7EAFC6E
:10225000FFF7ECFD01990298FFF7DAFCFFF7E6FDC6
:1022600002980399FFF7D4FC04B080BD80B500F05C
:10227000E9FE00F099FE00F083FEFFF7E7FD00F0B5
:10228000C1FEFFF7E3FD00F085FE80BD80B584B0A0
:1022900000F0C2FE40F60040C4F2010002904FF48C
:1022A00080710191FFF7B4FC02984FF40071039123
:1022B000FFF7AEFCFFF7BAFD01990298FFF7B2FCF9
:1022C000FFF7B4FD02980399FFF7ACFCFFF7AEFDF2
:1022D00004B080BD80B500F0B5FE00F05BFE00F0FC
:1022E00091FEFFF7B3FD00F04BFEFFF7AFFD00F0EE
:1022F0005BFE80BD80B582B000208DF8060000F046
:102300005DFE40F60040C4F2010000904FF4007101
:10231000FFF788FCFFF78AFD00984FF48071FFF704
:1023200081FCFFF783FDFFE740F60040C4F20100A7
:102330004FF40071FFF752FC88B1FFE79DF80600EB
:1023400001308DF806009DF80600FB2806DBFFE74C
:10235000FFF79CFF01208DF807000CE0E4E740F652
:102360000040C4F201004FF48071FFF751FC0020DF
:102370008DF80700FFE79DF8070002B080BD000060
:1023800080B584B00020029000F02AFE00F00CFE20
:10239000FFF75CFD00F0F4FDFFF758FDFFE700F0EC
:1023A00065FE28B3FFE702980130029041F28931BF
:1023B00088421CD3FFE700F0EDFD00200190FFE70D
:1023C000019808280DDCFFE700F0DAFDFFF73EFD7D
:1023D00000F0E0FDFFF73AFDFFE7019801300190C2
:1023E000EEE7FFF777FF01208DF80F0006E0D6E754
:1023F00000F0D0FD00208DF80F00FFE79DF80F00E2
:1024000004B080BD80B582B08DF807008DF806104D
:102410008DF80520FFF708FF9DF80700FFF77CFE09
:10242000FFF768FF9DF80600FFF776FEFFF762FFF3
:102430009DF80500FFF770FEFFF75CFFFFF726FF32
:1024400002B080BD80B582B08DF80700FFF70EFFA7
:102450004620FFF7B3FEFFF793FF18B1FFE7FFF742
:1024600039FF08E09DF80700FFF7A8FEFFF788FF97
:10247000FFF730FFFFE702B080BD000080B582B0FB
:1024800001210091084600F05FFD009940F2002014
:10249000C0F23000FFF724FB0099042000F054FD47
:1024A00010208DF8070002208DF806004FF4004040
:1024B000ADF8040040F60000C4F2010001A9FFF7E6
:1024C0004BFA00F003F802B080BD000080B540F682
:1024D0000000C4F201004FF40041FFF799FB80BDFA
:1024E00080B540F60000C4F201004FF40041FFF750
:1024F00099FB80BD80B584B00820012100F024FD47
:102500004FF44070ADF80C0014208DF80F0003203C
:102510008DF80E0040F60040C4F20100009003A9BF
:10252000FFF71AFA00984FF48071FFF77BFB0098D1
:102530004FF40071FFF776FB6420FFF7D3F9D0204A
:1025400001906B210022FFF75DFF0A20FFF7CAF917
:10255000019819210722FFF755FF01981A21062239
:10256000FFF750FF01981B2118220292FFF74AFF44
:102570000198029A1C21FFF745FF04B080BD0000BE
:1025800080B586B00590D0203B210DF106020E23C8
:10259000FFF72CFD9DF806109DF8070040EA01208A
:1025A000059908809DF808109DF8090040EA01206F
:1025B000059948809DF80A109DF80B0040EA01201B
:1025C000059988809DF80C109DF80D0040EA0120C7
:1025D0000599C8809DF80E109DF80F0040EA012073
:1025E000059908819DF810109DF8110040EA01201E
:1025F000059948819DF812109DF8130040EA0120CA
:1026000005998881012006B080BD000080B582B0A8
:1026100000208DF80700FFE79DF80700072820DC61
:10262000FFE79DF807000021009100F0DDF8009819
:102630008DF80600FFE79DF806007F280ADCFFE71B
:10264000002000F093F9FFE79DF8060001308DF8B7
:102650000600F0E7FFE79DF8070001308DF807005E
:10266000DAE702B080BD000080B584B00820012107
:10267000029100F069FC14208DF80F0003208DF802
:102680000E00C020ADF80C0040F60040C4F201007E
:10269000019003A9FFF760F90198029A4021FFF722
:1026A000CBFA0198029A8021FFF7C6FA04B080BDE8
:1026B00080B586B08DF8170000208DF81600FFE772
:1026C0009DF81600072821DCFFE79DF817009DF80C
:1026D0001620802121FA02F2024040F60040C4F2A6
:1026E00001000390FFF7A8FA03984021049101220A
:1026F000FFF7A2FA039804990022FFF79DFAFFE77B
:102700009DF8160001308DF81600D9E740F600401C
:10271000C4F201000190402102910122FFF78CFADE
:10272000019802990022FFF787FA06B080BD0000E9
:1027300080B586B040F60040C4F2010003908021CD
:10274000029101220192FFF777FA019A0398402142
:102750000491FFF771FA0299039800220592FFF79E
:102760006BFA03980499059AFFF766FA06B080BDE4
:1027700080B584B040F60040C4F201000190802191
:1027800002910022FFF758FA01984021012203929A
:10279000FFF752FA01980299039AFFF74DFA04B035
:1027A00080BD000080B582B0FFF75EFF0020019081
:1027B000FFE7019844F61F61884205DCFFE7FFE769
:1027C000019801300190F4E7AE2000F0BBF88D20B5
:1027D00000F0B8F8142000F0B5F8AF2000F0B2F81F
:1027E000FFF714FF02B080BD80B582B08DF80700FE
:1027F0008DF806109DF8070040F0B00000F0A2F838
:102800009DF806000009103000F09CF89DF80600C5
:1028100000F00F0000F096F802B080BD80B582B0E5
:102820008DF807008DF806108DF805209DF807102B
:102830006FF0010000EB41009DF806206FF00701EA
:1028400001EBC201C0B2C9B2FFF7CEFF00208DF884
:102850000400FFE79DF80400072819DCFFE79DF856
:10286000051044F29060C0F6000000EB01109DF8E6
:10287000041008444FF60061CFF6FF71405C00F091
:1028800075F8FFE79DF8040001308DF80400E1E7DA
:102890009DF807104FF0FF3000EB41009DF8062037
:1028A0006FF0070101EBC201C0B2C9B2FFF79CFF94
:1028B00000208DF80400FFE79DF80400072819DCCC
:1028C000FFE79DF8051044F29060C0F6000000EBB1
:1028D00001109DF8041008444FF60861CFF6FF710F
:1028E000405C00F043F8FFE79DF8040001308DF8EC
:1028F0000400E1E702B080BD80B584B08DF80F0020
:102900008DF80E10029200208DF80700FFE7029864
:102910009DF80710405C98B1FFE79DF80F009DF807
:102920000E109DF807301944029AD25CC9B2FFF725
:1029300075FFFFE79DF8070001308DF80700E6E717
:1029400004B080BD80B582B08DF80700FFF7F0FEBF
:102950007820FFF7ADFE0020FFF7AAFE9DF80700E4
:10296000FFF7A6FEFFF704FF02B080BD80B582B07E
:102970008DF80700FFF7DCFE7820FFF799FE402076
:10298000FFF796FE9DF80700FFF792FEFFF7F0FEB7
:1029900002B080BD80B582B0142000F0A7F88DF899
:1029A00007009DF80700800728B9FFE714200321DE
:1029B00000F084F9FFE702B080BD000080B584B06C
:1029C000039000218DF809100D2000F09DFA039965
:1029D00093200870039920204870039B69460DF1ED
:1029E000060008600C200222194600F07FF98DF8DD
:1029F0000B009DF80B0038BBFFE700208DF80A00A4
:102A0000FFE79DF80A00032810DCFFE703989DF814
:102A10000A10415C9DF8090048408DF80900FFE765
:102A20009DF80A0001308DF80A00EAE79DF80900D8
:102A300003999DF80A20895C884204D0FFE70220B0
:102A40008DF80B00FFE7FFE79DF80B0004B080BD99
:102A500080B582B08DF807008DF806109DF807004C
:102A600000F044F88DF805009DF807009DF805106A
:102A70009DF80620914300F047FA02B080BD0000A7
:102A800080B584B000F088F840F60000C4F2010080
:102A9000019008210291FFF7BBF80A200390FEF78E
:102AA00021FF01980299FFF7BDF80398FEF71AFF7E
:102AB00000F068F82A208D2100F026FA2B203E2114
:102AC00000F022FA2D201E2100F01EFA2C200021F9
:102AD00000F01AFA1520402100F016FA11203D21CD
:102AE00000F012FAFFF756FF04B080BD80B584B045
:102AF0008DF80F0040F60000C4F201000290102192
:102B00000191FFF785F89DF80F10802061F34600D2
:102B100000F0A8F8002000F0A5F8019902460298FC
:102B20008DF80E20FFF77EF89DF80E0004B080BDF2
:102B300080B584B08DF80F0002910D20072100F0C0
:102B4000E3F99DF80F0002990870029B694601A8FD
:102B500008600C200122194600F0C8F88DF8070023
:102B60009DF8070028B9FFE7BDF80400102804D03D
:102B7000FFE702208DF80700FFE79DF8070004B08B
:102B800080BD000080B501200F2100F0BDF90A20B2
:102B9000FEF7A8FE80BD000080B58EB041F20400B3
:102BA0000121079100F0D0F9A020ADF82200032008
:102BB00002908DF82400182001908DF8250040F631
:102BC0000000C4F2010005900DF122010391FEF70F
:102BD000C3FE039905984022ADF8222004228DF807
:102BE0002520FEF7B9FE019B029A03990598ADF8DE
:102BF00022308DF82420102204928DF82520FEF733
:102C0000ABFE04990598FFF70DF805980821FFF72A
:102C100009F80020ADF826004FF48271ADF82810B5
:102C2000ADF82A00ADF82C00ADF82E004FF400717D
:102C3000ADF830102821ADF83210ADF8340007207F
:102C4000ADF8360043F20000C4F2010006900DF129
:102C5000260100F057FA0698079900F011FA0EB015
:102C600080BD000080B582B08DF80700FFE743F219
:102C70000000C4F20100022100F018FA08B9FFE7D1
:102C8000F5E79DF8071043F20000C4F2010000F0E0
:102C90002FFAFFE743F20000C4F20100012100F027
:102CA00005FA08B9FFE7F5E743F20000C4F20100B6
:102CB00000F018FAC0B202B080BD000080B582B04A
:102CC0008DF807008DF806109DF80700FFF70EFF3E
:102CD0008DF805009DF807009DF805109DF8062069
:102CE000114300F011F902B080BD000080B58AB038
:102CF000DDF830C08DF8270008918DF81F2006936D
:102D000002208DF8170000208DF816008DF81500B0
:102D10009DF82700014603910C280BD0FFE703988C
:102D20000E280ED1FFE712208DF8160010208DF826
:102D3000150007E077208DF8160030208DF815007B
:102D400000E0FFE79DF8160040F08001022000F04F
:102D5000DBF8042080210191FFF77AFE01990A2017
:102D6000FFF7ACFF01200021029100F0CDF802989E
:102D7000ADF81000FFE7BDF810009DF81F10884265
:102D80000EDAFFE70898BDF81010415C092000F04A
:102D9000BBF8FFE7BDF810000130ADF81000EAE71E
:102DA0009DF82710012000F0AFF89DF827000C28AF
:102DB00005D1FFE70D208021FFF780FFFFE74FF4EB
:102DC000FA60ADF81000FFE70420FFF78FFE8DF8E2
:102DD0001300BDF810000138ADF81000FFE7BDF892
:102DE00010100020009089B1FFE79DF8131000201B
:102DF000C907009051B9FFE79DF813009DF8151021
:102E00000840B0FA80F040090090FFE70098C00742
:102E10000028D9D1FFE70D208021FFF719FEBDF86A
:102E2000100000286CD0FFE70620FFF75FFE10F0CF
:102E30001B0F60D1FFE700208DF817009DF81300ED
:102E40009DF816100840C00720B1FFE701208DF85B
:102E50001700FFE79DF827000C284BD1FFE70A2059
:102E6000FFF744FE8DF813000C20FFF73FFE00F043
:102E700007008DF814009DF8140050B1FFE79DF88D
:102E800013109DF8140000EBC10008380C9908805D
:102E900005E09DF81300C0000C990880FFE79DF83D
:102EA000130020B9FFE701208DF81300FFE79DF81C
:102EB0001300112804DBFFE710208DF81300FFE753
:102EC0000020ADF81000FFE7BDF810009DF81310CA
:102ED00088420EDAFFE70920FFF708FE0699BDF8E1
:102EE00010208854FFE7BDF810000130ADF8100045
:102EF000EAE7FFE703E002208DF81700FFE7FFE7AE
:102F00009DF817000AB080BD80B584B08DF80F0021
:102F10008DF80E1040F60000C4F20100029010215E
:102F20000191FEF775FE9DF80F107E2000EA41002A
:102F3000FFF798FE9DF80E00FFF794FE01990298A6
:102F4000FEF770FE04B080BD82B001908DF80310D2
:102F50009DF8030048B1FFE7019A41F21801C4F25D
:102F6000020108681043086008E0019A41F2180164
:102F7000C4F20201086890430860FFE702B070479E
:102F800080B540F60040C4F201004021FEF74AFE41
:102F900080BD000080B540F60040C4F20100402131
:102FA000FEF736FE80BD000080B540F60040C4F25A
:102FB00001008021FEF736FE80BD000080B582B0A2
:102FC0004FF40070ADF8040048208DF8070040F67B
:102FD0000040C4F2010001A9FEF7BEFC02B080BDB2
:102FE00080B582B08020ADF8040048208DF807003D
:102FF00040F60040C4F2010001A9FEF7ADFC02B0AA
:1030000080BD000080B540F60040C4F20100802180
:10301000FEF7FEFD80BD000080B582B04FF4007069
:10302000ADF8040010208DF8070003208DF806008D
:1030300040F60040C4F2010001A9FEF78DFC02B089
:1030400080BD000080B582B08020ADF8040014205F
:103050008DF8070003208DF8060040F60040C4F20A
:10306000010001A9FEF778FC02B080BD80B540F6F2
:103070000040C4F201008021FEF7B0FD80BD0000D9
:1030800082B001908DF803109DF8030030B1FFE786
:103090000199088840F04000088005E001990888FF
:1030A00020F040000880FFE702B0704782B0019036
:1030B000ADF8021000208DF8010001980089BDF8DC
:1030C00002100840000420B1FFE701208DF8010044
:1030D00003E000208DF80100FFE79DF8010002B039
:1030E0007047000081B000900098808901B070475F
:1030F00082B00190ADF80210BDF8020001998881FC
:1031000002B0704783B0029001910020ADF8020038
:1031100002980088ADF80200BDF8020000F44150AA
:10312000ADF80200019908884A8810438A88104344
:10313000CA8810430A8910434A8910438A89104378
:10314000C9890143BDF802000843ADF80200BDF88B
:103150000200029908800299888B20F4006088831D
:103160000198008A0299088203B0704780B500F088
:1031700001F880BD84B000200390029041F200016C
:10318000C4F20201086840F480300860FFE741F2B1
:103190000000C4F20200006800F4003002900398BE
:1031A00001300390FFE702990020019039B9FFE751
:1031B0000398B0F5A06018BF01200190FFE70198C7
:1031C000C0070028E3D1FFE741F20000C4F202008B
:1031D00000688003002803D5FFE70120029002E089
:1031E00000200290FFE70298012851D1FFE742F248
:1031F0000001C4F20201086840F01000086008688D
:1032000020F007000860086840F00200086041F202
:103210000401C4F2020100910868086008680860AF
:10322000086840F480600860086820F47C1008603A
:10323000086840F4E810086041F20001C4F202019D
:10324000086840F080700860FFE741F20000C4F2B7
:10325000020000688001002801D4FFE7F5E741F291
:103260000401C4F20201086820F003000860086845
:1032700040F002000860FFE741F20400C4F20200DF
:10328000006800F00C00082801D0FFE7F4E700E038
:10329000FFE704B07047000080B541F20002C4F2BD
:1032A0000202106840F00100106041F20401C4F213
:1032B000020108680023CFF6FF0318400860106879
:1032C0004FF6FF73CFF6F66318401060106820F4D5
:1032D00080201060086820F4FE00086041F20801B8
:1032E000C4F202014FF41F000860FFF73FFF4EF6E3
:1032F0000851CEF200014FF00060086080BD000070
:1033000080B590B00F900E9100208DF8170040F21C
:103310000800C2F20000007840F27901C2F2000118
:103320000978884220D0FFE740F27900C2F200001D
:10333000017840F20802C2F200021170007848B928
:10334000FFE744F6AE42C0F6000201210846FFF74F
:10335000D3FA08E044F69E42C0F600020121084676
:10336000FFF7CAFAFFE7FFE740F20400C2F20000ED
:1033700000680F9900F008FEC8B9FFE70F9840F207
:103380000401C2F2000108600F9800F06FFD0246D0
:103390000B4644F6BE41C0F6000106A80490FCF7B7
:1033A0007FFF049A02200121FFF7A6FAFFE70E989B
:1033B000B0F9000040F20201C2F20001B1F90010C0
:1033C000401A02900028039002D5029840420390D0
:1033D0000398652818DBFFE70E98008840F2020189
:1033E000C2F2000108800E98B0F9002044F6914125
:1033F000C0F6000106A80190FCF752FF019A0320D5
:103400000121FFF779FAFFE740F27900C2F20000EC
:103410000078012839D1FFE740F27600C2F20000BF
:10342000007870B9FFE740F27600C2F20000407801
:1034300038B9FFE740F27600C2F20000807820B38E
:10344000FFE740F27600C2F20000007820B1FFE70B
:1034500001208DF8170017E040F27600C2F200005C
:10346000407820B1FFE702208DF817000BE040F212
:103470007600C2F20000807820B1FFE703208DF8CB
:103480001700FFE7FFE7FFE7FFE740F20000C2F2A7
:10349000000000789DF8171088423DD0FFE79DF8A6
:1034A000170040F20001C2F2000108709DF81700F9
:1034B000012809D1FFE744F6FF42C0F600020420CC
:1034C0000121FFF719FA26E09DF81700022809D11B
:1034D000FFE744F6EE42C0F6000204200121FFF7A8
:1034E0000BFA17E09DF81700032809D1FFE744F60F
:1034F000CE42C0F6000204200121FFF7FDF908E0EA
:1035000044F68042C0F6000204200121FFF7F4F9DE
:10351000FFE7FFE7FFE7FFE710B080BD80B588B0A9
:103520000790069105920798FDF76AFF20B1FFE723
:10353000079900200860FFE70DF10600FFF720F86B
:1035400068B1FFE7BDF8060006990880BDF80800DD
:1035500006994880BDF80A0006998880FFE7FEF7C3
:1035600081FB0599086008B080BD000080B58AB075
:103570000020009009900890ADF81C00069005907E
:103580008DF80500FFF70EF9FFF740F844F6DF422B
:10359000C0F6000201210846FFF7AEF9FFF770FA06
:1035A000FDF7FEFEFEF7A6FFFEF7E4FBFEF766FF63
:1035B000FDF76CFF4FF4FA70FEF794F9FFF726F869
:1035C000009840F27901C2F200010870FEF788FF0E
:1035D000FFE7FEF773F89DF8050001308DF8050050
:1035E0009DF80500042824DBFFE700208DF8050086
:1035F00008A806A905AAFFF791FF40F27900C2F2D8
:1036000000000078012806D1FFE7059A089806A96E
:10361000FDF76CFF08E040F27601C2F200010020E5
:10362000087048708870FFE7089806A9FFF768FEE1
:10363000FFE7FEF7D9F83220FEF754F9C9E75FEA51
:10364000400C08BF91F0000F4FEA8C234FEAC122D3
:1036500043EA51514FEA1C5018BF00F5F0404FEAC1
:10366000300018BF41F000415FEA6C5C00F0298037
:10367000BCF1FF3F08BF40F080407047130C06BF0D
:1036800012044FF0100C4FF0000C130E04BF120286
:103690000CF1080C130F04BF12010CF1040C930F72
:1036A00004BF92000CF1020CD30F04BF52000CF1C6
:1036B000010C11464FF00002A0F11F00A0EB0C001E
:1036C000704711F0004F08BF704731F000413FF4E0
:1036D000D5AF0B0C06BF09044FF0100C4FF0000CD7
:1036E0000B0E04BF09020CF1080C0B0F04BF0901FB
:1036F0000CF1040C8B0F04BF89000CF1020CCB0FF2
:1037000004BF49000CF1010CCCF1200322FA03F3B1
:1037100041EA030102FA0CF2A0EB0C0000F10100F7
:103720007047000023F07F4720F07F4C80EA0300C1
:1037300000F00040ACEB070303F57C5303F1FF03FB
:103740002DE9804909B44FEA144324EA03484FEABB
:10375000154B25EA0B4E0FF2042606EB13273E7895
:1037600003FB0667C7F5000707FB06F64FEAD646D8
:1037700006F102064FEA543707FB066CCCF1005CF9
:103780004FEA1C472CEA074C0CFB06F507FB06F436
:1037900004EB15464FEA961649085FEA320234BF39
:1037A00000204FF000404FEAD13706FB07FC4FEAFC
:1037B0001C4C0CFB0BF7D21B03FB0CF761EB070156
:1037C0000CFB0EF7B0EB074072EB17420CFB08F74F
:1037D00034BFA2EB0742B2EB074261EB17414FEA5D
:1037E0000C444FEA910706FB07FC4FEA1C4C0CFB0C
:1037F0000BF7B0EBC74072EB573203FB0CF734BF4B
:10380000A2EBC742B2EBC74261EB57310CFB0EF79C
:10381000B0EBC70072EB57720CFB08F734BFA2EB9A
:10382000C702B2EBC70261EB57714FEA816141EA0F
:1038300092114FEA826242EA90124FEA806004EBF2
:10384000CC04039F4FEAD13706FB07FC4FEA1C4C20
:103850000CFB0BF7D21B03FB0CF761EB07010CFB16
:103860000EF7B0EB074072EB17420CFB08F734BFC2
:10387000A2EB0742B2EB074261EB17414FEA8C55CE
:1038800004EB9C244FEA910706FB07FC4FEA1C4C13
:103890000CFB0BF7B0EBC74072EB573203FB0CF796
:1038A00034BFA2EBC742B2EBC74261EB57310CFB0E
:1038B0000EF7B0EBC70072EB57720CFB08F734BF82
:1038C000A2EBC702B2EBC70261EB57714FEA81610D
:1038D00041EA92114FEA826242EA90124FEA806016
:1038E00015EB4C2544F100044FEAD13706FB07FCE9
:1038F0004FEA1C4C0CFB0BF7D21B03FB0CF761EBE4
:1039000007010CFB0EF7B0EB074072EB17420CFB04
:1039100008F734BFA2EB0742B2EB074261EB174155
:103920004FEA813141EA92414FEA823242EA9042C3
:103930004FEA80304FEA0C7615EB1C1544F1000479
:1039400048EA03434EEA0B484FF0000EB2EB080C76
:1039500071EB030724BF624639464EEB0E0E4FF063
:10396000000B0018524149414BEB0B0BB2EB080C1A
:1039700071EB03077BF1000B24BF624639464EEB27
:103980000E0E4FF0000B0018524149414BEB0B0B50
:10399000B2EB080C71EB03077BF1000B24BF62460E
:1039A00039464EEB0E0E51EA020718BF46F00106EB
:1039B00016EB0E7655F1000254F1000103D5BDE877
:1039C0008901BDE80088BDE88901BDE80048B61955
:1039D000524141EB0101A3F10103704780807F7EDA
:1039E0007D7C7B7A79787776767574737271717075
:1039F0006F6E6E6D6C6C6B6A6A6968686766666527
:103A00006464636362616160605F5F5E5E5D5D5CB4
:103A10005C5B5B5A5A595958585757565655555525
:103A20005454535352525251515050504F4F4F4E85
:103A30004E4D4D4D4C4C4C4B4B4B4A4A4A494949D3
:103A40004848484747474746464645454544444415
:103A50004443434343424242424141419C46002B3E
:103A600030D477002BD04FEA37071CB503B44FF0A2
:103A700010004FF01001BAF1000F06D0BCF1000F9A
:103A8000DCBF40F0080040F008014FF000000FBC20
:103A9000BDE810400BF1010BBBF1010F08BF5FEA5D
:103AA000170722BF12F1010211F101014FF000418D
:103AB00043F1000300F0004043EA00007047F9D3EF
:103AC0005708D0E746EA06464FEA164613F1400F7C
:103AD0001FDD13F1200FDFBF16430A4600212033FC
:103AE0005B42BED0C3F1200746EA06464FEA1646BF
:103AF00002FA07F746EA070622FA03F2C3F12007A3
:103B000001FA07F742EA070221FA03F14FF0000336
:103B1000A7E746EA020646EA06464FEA164646EA9E
:103B20000106BCBF46EA0646360C4FF000034FF0D4
:103B300000024FF0000194E72DE9804C70B49A46E2
:103B4000934691E8380007C831EA400C48BF34EA90
:103B5000430C03D5FFF7E6FDFFF780FFF0BCBDE89F
:103B6000008C2DE9804C70B49A46934691E8380059
:103B700007C810F0804F08BF13F0804F03D100F04A
:103B800005F8FFF76BFFF0BCBDE8008C20F07F4725
:103B900023F07F4C80EA030000F0004007EB0C03A9
:103BA000A3F57C53A3F1FE0392F0000F00F0B38065
:103BB00095F0000F00F077802DE901494FEA1140A0
:103BC00021EA00484FEA144624EA064700FB06FCB7
:103BD00008FB06F607FB08F818EB06484CEB164CFA
:103BE00000FB07F718EB07484CEB17404FEA124B66
:103BF00022EA0B4E4FEA154625EA06470BFB06FC68
:103C00000EFB06F607FB0EFE1EEB064E4CEB164CAB
:103C10000BFB07F71EEB074E4CEB174B18EB0B0893
:103C200040F1000018EB0E0B58EB000840F10000CB
:103C30008F1A4FF000014FF000063CBFC943661BCE
:103C400014BFB5EB040C00213CBFC943F61B4FEA7F
:103C5000174427EA04454FEA1C472CEA074C04FBAB
:103C6000076205FB07F70CFB05F616EB074642EB70
:103C7000174204FB0CFC16EB0C4642EB1C421BEB00
:103C8000060658EB020241414EEA8E0E46EA9E06B7
:103C900001D5BDE80189B619524141EB0101A3F1FB
:103CA0000103BDE801894FEA144524EA05464FEABD
:103CB000114721EA074C05FB07F406FB07F70CFB4D
:103CC00006F111EB074144EB174405FB0CFC11EB2B
:103CD0000C4144EB1C444FEA124722EA074C05FB17
:103CE00007F206FB07F70CFB06F616EB074642EB5E
:103CF000174205FB0CFC16EB0C4642EB1C456A1800
:103D000054F1000148BF7047B619524141EB01011F
:103D1000A3F10103704795F0000F37D04FEA11422D
:103D200021EA02464FEA144724EA074C02FB07F156
:103D300006FB07F70CFB06F414EB074441EB1741B5
:103D400002FB0CFC14EB0C4441EB1C414FEA154701
:103D500025EA074C02FB07F506FB07F70CFB06F606
:103D600016EB074645EB174502FB0CFC16EB0C4621
:103D700045EB1C42121951F1000148BF7047B619BA
:103D8000524141EB0101A3F1010370474FEA144591
:103D900024EA05464FEA114721EA074C05FB07F1E3
:103DA00006FB07F70CFB06F212EB074241EB17414B
:103DB00005FB0CFC12EB0C4251EB1C414FF00006D2
:103DC00048BF7047921841EB0101A3F1010370470E
:103DD000490050EAC12018BF04204A0D18BF40F026
:103DE000010040F2FF72B2EB515F08BF40F00200E9
:103DF000012808BF0520704730380A2801D2012069
:103E0000704700207047000010B500290AD00878DC
:103E1000002807D005487844FDF77AFA002801D039
:103E2000002010BD0248784410BD00001A0F0000A9
:103E3000120F000010B500290AD00878002807D01A
:103E400005487844FDF764FA002801D0002010BD31
:103E50000248784410BD00000A0F0000020F000065
:103E60000808A0F500114FEA3101704743004FEAFE
:103E7000D30C4FEA3C0C43401FBF40070CF160518C
:103E800013F0FE4F70471CF0006F03D10CF000419F
:103E9000002070470CF0004343EA507040EACC0029
:103EA00010B500F0B2FA00BF000000924FEA000126
:103EB000FFF7D6BF4FF00041A1F500214FF0000001
:103EC0007047000090EA010F48BF81F0004100F107
:103ED000EE82421A3CBF801A89184FEAD052A2EBF8
:103EE000D1534FF07F4C1CEA410F18BF9CEA026F80
:103EF00000F03B804FF0004C4CEA00204CEA0121DE
:103F000021FA03FC10EB0C0C1ED202F1FF325FEA27
:103F10001C2040EBC25038BF70471CF07F0F4FEAA7
:103F2000400C18BFBCF17F4F38BF7047C3F120036E
:103F3000994008BF20F00100BCF17F4F38BF7047A7
:103F4000A0F1C04000F0A7BA4FEA3C00000A40EBE5
:103F5000C25028BF1CF0FF0F4FEA400CE6D018BF3C
:103F6000BCF17F4F38BF7047EAE79CEA026F05D08B
:103F700010EA5C0F08BF00F00040704710B500F079
:103F800044FA00BF64FBBE3E10B500F0F5F80CBF6C
:103F90000120002010BD10B500F0EEF814BF012084
:103FA000002010BD10B500F047F98CBF01200020A3
:103FB00010BD10B500F040F92CBF0120002010BD4D
:103FC00010B500F06DF994BF0120002010BD10B5B0
:103FD00000F066F934BF0120002010BD401058BF2A
:103FE000C0F14040491058BFC1F140418142EFF358
:103FF000008070474FF47F0C1CEAD0121EBF1CEAF1
:10400000D11392EA0C0F93EA0C0F00F0858090EA2E
:10401000010F48BF42F4807240F4000C41F40000EC
:104020002CF07F4120F07F4000B5A2EB03028142DB
:104030000FF2081CACEB504E9EF800E0C0F10000FF
:104040004FEA4E0E00FB0EFC38BF49004FEA2C1C15
:104050000CFB0EF34FEACE1E0EEB635E4FEA112C03
:104060000EFB0CFC4FEAC1214FEA1C5300FB03116D
:1040700002F5FA024FEA112C0EFB0CFC4FEA01315B
:104080004FEADC4C00FB0C1142EB2242C14228BF3C
:1040900009184CEB03335DF804EB10EB410143EBE3
:1040A000C250B2F57C0F38BF704729D512F0F00F1F
:1040B0001CBF00F1C04000F00040704700818283C7
:1040C0008485868788898B8C8D8E8F919293959627
:1040D00097999A9C9D9FA0A2A3A5A7A8AAACAEB0B1
:1040E000B2B3B5B7B9BCBEC0C2C5C7C9CCCED1D4B6
:1040F000D7D9DCDFE2E6E9ECF0F3F7FAFE000000E6
:104100004FEA400C0CF1807CBCF17E4F28BF704719
:10411000B0F1C04000F0BFB90CEAD11390EA010F32
:1041200048BF42F48072624538BF634507D213F43A
:104130007F0F16D080EA010000F00040704710B5F4
:1041400000F063F9097EFC3E00F005B880EA01004A
:1041500000F00040704780EA010000F0004000F0ED
:104160009AB912F47F0F04BF0248704780EA010039
:1041700000F091B90000C07F50EA010C00F11380FB
:104180001CF5000F58BFBCF5000F01D488427047E2
:1041900007D710F5000F58BF11F5000F15D488424E
:1041A0007047894270471CF5000F04D5BCF5000F1D
:1041B000F7D5814270474FF0807C1CEB400F38BF31
:1041C0001CEB410F01D28142704710B500F01DF980
:1041D000922449004FF000504FF08051FFF7FEBE8F
:1041E00010F0004148BF4042B0FA80F310FA03F2E9
:1041F000C3F19D030BD051EAC35101EB12205306CA
:1042000038BF704700F1010008BF20F0010070477F
:10421000B0FA80F310FA03F2C3F19D030AD0D90576
:1042200001EB1220530638BF704700F1010008BFB0
:1042300020F001007047000050EA010C00F11380EB
:104240001CF5000F58BFBCF5000F01D48842704721
:1042500007D710F5000F58BF11F5000F15D488428D
:104260007047894270471CF5000F04D5BCF5000F5C
:10427000F7D5814270474FF0807C1CEB400F38BF70
:104280001CEB410F01D28142704710B500F0BDF820
:10429000922449004FF080504FF00051FFF79EBE2E
:1042A00050EA010C00F113801CF5000F58BFBCF55B
:1042B000000F01D48842704707D710F5000F58BF90
:1042C00011F5000F15D488427047894270471CF5DC
:1042D000000F04D5BCF5000FF7D5814270474FF0B1
:1042E000807C1CEB400F38BF1CEB410F01D2814298
:1042F000704710B500F089F8922449004FF0005043
:104300004FF08051FFF76ABE4FF47F0C1CEAD012C9
:104310001EBF1CEAD11392EA0C0F93EA0C0F00F0B7
:10432000478090EA010F48BF42F480724FF0004C82
:104330004CEA00204CEA012102EB0302A0FB01132E
:10434000A2F50002002918BF43F001035B0028BF5B
:104350004FEA330342EB22425FEA132C4CEBC2508C
:104360002EBFBCEB436FB2F57C0F70474FEA036C76
:10437000BCF1004F08BF20F00100B2F57C0F38BF40
:1043800070470BD582F0FF0212F5803FC8BF70471F
:1043900000F1C040D8BF00F00040704700F5000CAD
:1043A0005FEA4C0C48BF7047B0F1C04000F073B8F2
:1043B0000CEAD11390EA010F48BF42F480726245C3
:1043C00038BF634504D280EA010000F00040704726
:1043D00010B500F01AF800BF8900013E00F007B8E0
:1043E00000F009B85FEA410C5FEA1C6C08D080EA73
:1043F000010000F050B85FEA400C5FEA1C6CF6D197
:104400004FF00040A0F5800070470EF1020E2EF034
:10441000030E5EF8044B244204D44FEA4102B2F189
:104420007F4F11D84FEA4003B3F17F4F0CD80ED124
:104430004FEAD07C0CEB4C0C0CF1020CB2F17F4F2C
:1044400008BF4CEBD17C04E04FF0080C01E04FEAD0
:10445000D17C0CEB4C0324FA03F404F00704B4F110
:10446000040C06D20EEB840CBDE810404CF0010C9D
:104470006047DFE80CF0070802024FF00040A0F5AB
:10448000800010BD0846420018BFD2F1807288BF7C
:1044900000F0004010BDFF2141EAD050C005704738
:1044A00090EA010F48BF81F000413FF512AD421A7A
:1044B00004D882F00042A0EB020011444FEAD0522F
:1044C000A2EBD1534FF07F4C1CEA410F18BF9CEA7E
:1044D000026F4AD04FF0004C4CEA00204CEA012118
:1044E00021FA03FCB0EB0C0C0FD412F0FE0F36D007
:1044F0005FEA4C001DD5001240EBC25038BF704738
:104500001CF03F0F18BF70470BE05FEA1C20A2F1C0
:10451000010240EBC25038BF70471CF07F0F18BF3C
:104520007047C3F12003994014BF401E20F00100E2
:1045300070474FEA1223800808BF7047B0FA80FC2A
:10454000A2EB0C02CCF1280C60FA0CF093EA122FCB
:1045500004BF00EBC25070474FEAC3707047130AA4
:104560005FEADC1008BF7047F6E79CEA026F04D0F0
:1045700010EA5C0F08BF0020704710B5FFF745FF39
:1045800040DFF63E81F000407047FCF7CBBAFCF705
:10459000FFBB00000000000000000000303132339B
:1045A0003435363738394142434445464030580067
:1045B0003031323334353637383961626364656699
:1045C00040307800040000080000000000000002F5
:1045D000000100001030313233343536373839615C
:1045E0006263646566787000303132333435363753
:1045F00038394142434445465850000002400000CB
:10460000000000A00000000005400000000000C8FD
:10461000000000000C4000000000409C0000000072
:10462000194000000020BCBE000000003440000023
:10463000BFC91B8E00000004B5400000504BCFD016
:104640006607E2CF010000006C4100003E8251AAE3
:10465000DFEEA73401000000D9420000DCB5A0E283
:104660003A301F97FFFFFFFFB4450000FD25A0C8AB
:10467000E9A3C14FFFFFFFFFFF3F000000000080E4
:1046800000000000FF3F000000000080000000006C
:10469000000000000000000000000000000000001A
:1046A000000000F8000000000000003330000000AF
:1046B00000100C06100C06000000000000000000B6
:1046C00040C07840C0784000043F04043F04040028
:1046D000007088FC08300000001820FF211E000038
:1046E000F008F000E018000000211C031E211E004D
:1046F00000F00888700000001E21232419272110D3
:1047000010160E0000000000000000000000000075
:10471000000000E01804020000000007182040001C
:1047200000020418E000000000402018070000000C
:10473000404080F0804040000202010F0102020070
:10474000000000F0000000000101011F0101010054
:10475000000000000000000080B0700000000000B9
:104760000000000000000000000101010101010142
:1047700000000000000000000030300000000000D9
:1047800000000000806018040060180601000000AE
:1047900000E010080810E000000F102020100F00AB
:1047A000001010F8000000000020203F2020000032
:1047B000007008080888700000302824222130008A
:1047C00000300888884830000018202020110E0092
:1047D0000000C02010F8000000070424243F24003B
:1047E00000F80888880808000019212020110E0010
:1047F00000E0108888180000000F112020110E0022
:1048000000380808C83808000000003F0000000019
:104810000070880808887000001C222121221C00DA
:1048200000E010080810E0000000312222110F0003
:10483000000000C0C0000000000000303000000098
:104840000000008000000000000080600000000008
:104850000000804020100800000102040810200021
:10486000404040404040400004040404040404006C
:104870000008102040800000002010080402010001
:10488000007048080808F000000000303601000001
:10489000C030C828E810E0000718272423140B00B4
:1048A0000000C038E0000000203C2302022738202E
:1048B00008F8888888700000203F202020110E0012
:1048C000C030080808083800071820202010080009
:1048D00008F808080810E000203F202020100F00F2
:1048E00008F88888E8081000203F202023201800BE
:1048F00008F88888E8081000203F20000300000026
:10490000C03008080838000007182020221E0200C6
:1049100008F808000008F808203F210101213F2085
:10492000000808F8080800000020203F20200000B0
:1049300000000808F8080800C08080807F000000A0
:1049400008F888C028180800203F200126382000D9
:1049500008F8080000000000203F20202020300040
:1049600008F8F800F8F80800203F003F003F20005A
:1049700008F830C00008F808203F200007183F0062
:10498000E01008080810E0000F10202020100F0091
:1049900008F808080808F000203F21010101000084
:1049A000E01008080810E0000F18242438504F00C9
:1049B00008F8888888887000203F2000030C302089
:1049C00000708808080838000038202121221C00C7
:1049D000180808F8080818000000203F2000000010
:1049E00008F808000008F808001F202020201F00F9
:1049F0000878880000C83808000007380E01000059
:104A0000F80800F80008F800033C0700073C030022
:104A1000081868808068180820302C03032C302088
:104A20000838C800C83808000000203F20000000F7
:104A300010080808C838080020382621202018004F
:104A4000000000FE020202000000007F4040400023
:104A5000000C30C000000000000000010638C0005B
:104A600000020202FE000000004040407F00000003
:104A70000000040202020400000000000000000028
:104A80000000000000000000808080808080808026
:104A9000000202040000000000000000000000000E
:104AA00000008080808000000019242222223F2004
:104AB00008F8008080000000003F112020110E0047
:104AC0000000008080800000000E112020201100D6
:104AD000000000808088F800000E112020103F2088
:104AE0000000808080800000001F2222222213000C
:104AF000008080F0888888180020203F2020000057
:104B00000000808080808000006B9494949360000B
:104B100008F8008080800000203F210000203F2016
:104B200000809898000000000020203F2020000016
:104B3000000000809898000000C08080807F000006
:104B400008F8000080808000203F24022D302000E3
:104B5000000808F8000000000020203F202000008E
:104B60008080808080808000203F20003F20003FA8
:104B70008080008080800000203F210000203F20B6
:104B80000000808080800000001F202020201F0067
:104B9000808000808000000080FFA12020110E0096
:104BA0000000008080808000000E112020A0FF8087
:104BB000808080008080800020203F212000010034
:104BC0000000808080808000003324242424190089
:104BD000008080E0808000000000001F2020000096
:104BE0008080000000808000001F202020103F20D7
:104BF000808080000080808000010E300806010067
:104C000080800080008080800F300C030C300F000B
:104C100000808000808080000020312E0E31200036
:104C2000808080000080808080818E701806010066
:104C300000808080808080000021302C2221300084
:104C400000000000807C020200000000003F4040A5
:104C500000000000FF00000000000000FF00000056
:104C60000002027C800000000040403F0000000085
:104C70000006010102020404000000000000000020
:104C80005374617475733A204F4B202020202020EC
:104C90000041783A253664202020202020004D6FE6
:104CA00064653A20414C45525420202020004D6F2D
:104CB00064653A204E4F524D414C202020004C75E7
:104CC000783A25352E3066206C7820202000414C23
:104CD00041524D3A204F7574646F6F72202000531B
:104CE000797374656D20496E69742E2E2E00414CC7
:104CF00041524D3A2046617374204D6F76650041F4
:104D00004C41524D3A204C6F77204C6967687400D3
:104D10005C4E0008000000200C000000500100085C
:104D2000684E00081000002078060000700100089E
:104D30001C00000043000000F8FFFFFF0C00000013
:104D40000E0000000F0000002E0000001001000007
:104D500043000000F8FFFFFF00404040404040405B
:104D6000404041414141414040404040404040403E
:104D700040404040404040404005020202020202E2
:104D80000202020202020202022020202020202031
:104D90002020200202020202020290909090909045
:104DA0001010101010101010101010101010101003
:104DB0001010101002020202020288888888888877
:104DC0000808080808080808080808080808080863
:104DD000080808080202020240000000000000006B
:104DE00000000000000000000000000000000000C3
:104DF00000000000000000000000000000000000B3
:104E000000000000000000000000000000000000A2
:104E10000000000000000000000000000000000092
:104E20000000000000000000000000000000000082
:104E30000000000000000000000000000000000072
:104E40000000000000000000000000000000000062
:104E5000000000000000000000000000FF000080D3
:084E6000000080BFFF0000000C
:04000005080002618C
:00000001FF
